:1000000000800020BD010000952100004D2100006E
:100010004D2100004D2100004D2100004D21000028
:100020004D2100004D2100004D21000095210000D0
:10003000952100004D210000393F00003D400000A7
:1000400095210000952100009521000095210000D8
:1000500095210000952100009521000095210000C8
:1000600095210000952100009521000095210000B8
:1000700095210000952100009521000095210000A8
:100080009521000095210000952100009521000098
:100090009521000095210000952100009521000088
:1000A0009521000095210000952100009521000078
:1000B0009521000095210000952100009521000068
:1000C0009521000095210000952100009521000058
:1000D0009521000095210000952100009521000048
:1000E0009521000095210000952100009521000038
:1000F000952100007940000095210000A5410000F5
:1001000095210000D14200009521000095210000BA
:100110009521000095210000952100009521000007
:1001200095210000952100009521000095210000F7
:1001300095210000952100009521000095210000E7
:1001400095210000952100009521000095210000D7
:1001500095210000952100009521000095210000C7
:10016000952100003929000095210000952100000B
:1001700095210000952100009521000095210000A7
:100180009521000095210000952100009521000097
:100190009521000095210000952100009521000087
:1001A0009521000095210000952100009521000077
:1001B000952100009521000095210000564B4CF23E
:1001C000205210B51A804DF628121A8000BF00BFC9
:1001D00001F0E4FF514B4FF010621A60504A9A60F0
:1001E000504ADA60504A136813F4807304D14F49BF
:1001F0000B604FF4A85313604D4B1A78110703D5C9
:100200001A7842F008021A704A4B4B492A221A7097
:100210004A4A4B4B8B4204D252F8040F43F8040B6A
:10022000F8E7484B484900228B4202D243F8042B9E
:10023000FAE74649464A002352F8230041F82300D2
:1002400001336F2BF8D1434B434A802103F8011B44
:100250009342FBD1414B3D4A1A60414B8A221A70AE
:10026000A3F5805324225A70A0221A709A7992071B
:10027000FCD59A79D406FCD43A4A937903F00C035E
:10028000082B384BF9D103221A7140225A719A79FE
:100290009006FCD5334A9179324B4906FBD5324A58
:1002A000324911600221516020221A709A7902F0BD
:1002B0000C020C2AFAD12E4B2E4A1A602E4B2F4AD2
:1002C0001A6000225A60072243F8042C2C4AC3F813
:1002D0000C2D62B602F0B6F9144B1B68DA0705D58F
:1002E000284802F005F8284B284A1A60284B1B784A
:1002F0005B0609D5244C254B22689A4204D121483B
:1003000001F0F6FF0023236004F0AEFF01F04CFF84
:1003100001F014FFFEE700BF0E20054030800440CE
:10032000823F04000100002B10D0034014D0034092
:1003300002D0074000E00740E496FF1F5C62000027
:10034000308CFF1FE496FF1F1C9BFF1F0082FF1FC6
:100350000000000000E400E05FE400E008ED00E0E1
:100360000050064000400640448004400000030165
:1003700004800440C010050014E000E0FF76010096
:10038000000020206AF53D5D1CE00340A5C3945A9F
:1003900000F00740FFFFFFFFFFFFFFFFFFFFFFFF32
:1003A000FFFFFFFFFFFFFFFFFFFFFFFFFFFFFFFF5D
:1003B000FFFFFFFFFFFFFFFFFFFFFFFFFFFFFFFF4D
:1003C000FFFFFFFFFFFFFFFFFFFFFFFFFFFFFFFF3D
:1003D000FFFFFFFFFFFFFFFFFFFFFFFFFFFFFFFF2D
:1003E000FFFFFFFFFFFFFFFFFFFFFFFFFFFFFFFF1D
:1003F000FFFFFFFFFFFFFFFFFFFFFFFFFFFFFFFF0D
:10040000FFFFFFFFFFFFFFFFFFFFFFFFDEF9FFFF23
:1004100010B5054C237833B9044B13B10448AFF33E
:1004200000800123237010BDE496FF1F0000000030
:1004300060620000084B10B51BB108490848AFF3D3
:1004400000800848036803B910BD074B002BFBD0A0
:10045000BDE81040184700BF00000000E896FF1FED
:1004600060620000E496FF1F0000000040687047D3
:10047000C06800B10068704740687047037E8268BA
:1004800023B143699942ACBF0269002399420BDD55
:100490005AB1013399425268FAD101234161026194
:1004A000037612B110687047F7D00020704700BF84
:1004B000037E826823B143699942ACBF026900237D
:1004C00099420BDD5AB1013399425268FAD10123A6
:1004D00041610261037612B110687047F7D00020C5
:1004E000704700BF4368012B6DDD2DE9F04F0346D7
:1004F00083B008330F46019000934FF00009019B31
:10050000DDF800809E68002EF9D07168B24600299F
:1005100034D05046B84700282ADDDAF804406CB3DE
:10052000D4F804B02546BBF1000F06D05946284642
:10053000B84700282DDDD5F804B0CAF80490C5F8F6
:10054000049021463046B847002829DDC8F800400D
:10055000636804F10408002B36D1666000E01E4693
:100560007368002BFBD1B0465E4648F804BFCAE76B
:10057000DAF804A0DAF804100029CAD1009B9845E3
:10058000BDD101990022C1F80CA00A7603B0BDE8E4
:10059000F08F6D68D5F804B0BBF1000FC6D1CCE781
:1005A000C8F80060736806F104080BB11E46C8E77E
:1005B000746000E01C466368002BFBD1A0465E46D9
:1005C00048F804BF9FE770471C4633461E46B8E70D
:1005D000806800B100687047C06800B1006870476B
:1005E0004368012B6DDD2DE9F04F034683B00833DE
:1005F0000F46019000934FF00009019BDDF8008049
:100600009E68002EF9D07168B246002934D0504659
:10061000B84700282ADDDAF804406CB3D4F804B0F7
:100620002546BBF1000F06D059462846B84700289A
:100630002DDDD5F804B0CAF80490C5F80490214621
:100640003046B847002829DDC8F80040636804F147
:100650000408002B36D1666000E01E467368002B4C
:10066000FBD1B0465E4648F804BFCAE7DAF804A0FA
:10067000DAF804100029CAD1009B9845BDD1019930
:100680000022C1F80CA00A7603B0BDE8F08F6D68B7
:10069000D5F804B0BBF1000FC6D1CCE7C8F80060B4
:1006A000736806F104080BB11E46C8E7746000E0E9
:1006B0001C466368002BFBD1A0465E4648F804BF89
:1006C0009FE770471C4633461E46B8E7806800B176
:1006D0000068704738B5044608200D4601F07CFDDF
:1006E000A3680560002242604BB1E3685860E06097
:1006F00063680022013363602276012038BDA06068
:10070000E060F5E738B5044608200D4601F064FDC9
:10071000A3680560002242604BB1E3685860E06066
:1007200063680022013363602276012038BDA06037
:10073000E060F5E743688B422DE9F041064635DD80
:1007400051B3082017460D4601F046FD337EB468CC
:100750000022013D0260426023B173699D42ACBF3B
:10076000346913469D4227DDE4B12A4600E0CCB14E
:100770000133AB426468FAD1954213D17368626861
:10078000426001330021076075613461606073600D
:1007900031760120BDE8F08103681146DB68BDE8D1
:1007A000F0411847002307605B68FFDE03681146CD
:1007B0009B68BDE8F04118471A46DDE743688B4265
:1007C0002DE9F041064635DD51B3082017460D46A8
:1007D00001F002FD337EB4680022013D02604260F8
:1007E00023B173699D42ACBF346913469D4227DD36
:1007F000E4B12A4600E0CCB10133AB426468FAD1DF
:10080000954213D17368626842600133002107602A
:10081000756134616060736031760120BDE8F081FC
:1008200003681146DB68BDE8F04118470023076004
:100830005B68FFDE036811469B68BDE8F04118471E
:100840001A46DDE700291ADB4368994217DA037E6E
:1008500010B4846823B143699942ACBF0469002392
:1008600099420EDD74B1013399426468FAD10123D3
:100870000461416103761846226010BC7047002075
:100880007047F4D000231A60FFDE00BF00291ADB96
:100890004368994217DA037E10B4846823B1436930
:1008A0009942ACBF0469002399420EDD74B1013353
:1008B00099426468FAD101230461416103761846C4
:1008C000226010BC704700207047F4D000231A60EB
:1008D000FFDE00BF00293FDB4368994270B5044644
:1008E00033DA69B3013B994231D0037E8268013922
:1008F00003BB994232DDD2B1084600E0BAB1013300
:100900008B425268FAD1814211D1506861614368CB
:1009100005682261012121765360082101F062FC03
:1009200063680022013B28466360227670BD002385
:100930005B68FFDE43699942ACBF02690023D8E7D8
:100940000368BDE87040DB691847002070BD03688C
:10095000BDE870409B691847002070471846D2E7F1
:100960004268002A37DD70B5012A4FF000050646BF
:10097000057626D0023A84680DD04CB12B4611463C
:1009800000E0D4B1013393426468FAD18A4202D0C4
:1009900000235B68FFDE63687261012218463276CD
:1009A000346108211D6801F01DFC73680022013BC1
:1009B000626028467360F46070BD19468A42E7D1D0
:1009C000E9E780680468082101F00CFC2046B56066
:1009D000F560756070BD0020704700BF00293FDBE7
:1009E0004368994270B5044633DA69B3013B9942D2
:1009F00031D0037E8268013903BB994232DDD2B126
:100A0000084600E0BAB101338B425268FAD1814204
:100A100011D1506861614368056822610121217626
:100A20005360082101F0DEFB63680022013B284689
:100A30006360227670BD00235B68FFDE43699942E4
:100A4000ACBF02690023D8E70368BDE87040DB69EA
:100A50001847002070BD0368BDE870409B691847C7
:100A6000002070471846D2E74268002A37DD70B58B
:100A7000012A4FF000050646057626D0023A846822
:100A80000DD04CB12B46114600E0D4B10133934256
:100A90006468FAD18A4202D000235B68FFDE636893
:100AA0007261012218463276346108211D6801F016
:100AB00099FB73680022013B626028467360F46012
:100AC00070BD19468A42E7D1E9E7806804680821C9
:100AD00001F088FB2046B560F560756070BD0020B0
:100AE000704700BF426870B5044672B108200D46D9
:100AF00001F072FB6368A168056001330022416068
:100B0000A06063602276012070BD0368BDE870407C
:100B10009B681847426870B5044672B108200D46BC
:100B200001F05AFB6368A16805600133002241604F
:100B3000A06063602276012070BD0368BDE870404C
:100B40009B6818474368002B17DD012B70B50446DE
:100B50000ED083680821184693E8600001F042FB3C
:100B60006368A660013B002228466360227670BD60
:100B70000368BDE870409B6918470020704700BFBC
:100B80004368002B17DD012B70B504460ED0836837
:100B90000821184693E8600001F024FB6368A66012
:100BA000013B002228466360227670BD0368BDE8E1
:100BB00070409B6918470020704700BF38B50A4D48
:100BC000044606E06068002820460BDD2368DB69E8
:100BD000984723681B68AB42F4D02046984700280A
:100BE0002046F3DC38BD00BF7904000038B50A4D5B
:100BF000044606E06068002820460BDD2368DB69B8
:100C0000984723681B68AB42F4D0204698470028D9
:100C10002046F3DC38BD00BF6D040000F8B5044683
:100C2000827043600022069B9DF81C60174D184F90
:100C30004170480022626262E261A262E26284F86C
:100C40003020E2632264A2636264A26484F84C20D0
:100C500062616265A265A360A5616763267001F0A9
:100C6000BDFA63782065580001F0B8FA6378E06057
:100C7000580001F0B3FA6278A378206112FB03F008
:100C8000C00001F0ABFA20662046F8BDD45B00003E
:100C9000105C000010B50446006D08B101F0A0FA28
:100CA000206908B101F09CFAE06808B101F098FAF7
:100CB000206E08B101F094FAE06B0C4B636338B11D
:100CC0004368E363082101F08DFAE06B0028F7D157
:100CD000206A074BA36138B143682362082101F001
:100CE00081FA206A0028F7D1204610BD105C000070
:100CF000D45B0000F8B50378022B044630D0012BFA
:100D0000437829D05BB3002007464FF6FF7E6FF093
:100D1000130603B2226DE568216922F813E025F875
:100D200013E021F813E0A37800227BB1216E03FBCE
:100D3000002301EBC303551C5E60A37803FB002373
:100D4000EAB201F83370A3789342EFD801306378A8
:100D5000C0B28342DDD8F8BDEBB983784BBBF8BD98
:100D6000837800254BB1A3680221585D01F0F4FBA4
:100D70000135A378EDB2AB42F5D8637800252BB3EB
:100D800063680021585D01F0E7FB01356378EDB23F
:100D9000AB42F5D8B6E7002563680221585D01F043
:100DA000DBFB01356378EDB2AB42F5D8A278002ABF
:100DB000A8D00025A3680021585D01F0CDFB0135C6
:100DC000A378EDB2AB42F5D863789BE7F8BD00BFDE
:100DD00010B4036D847833F8113004FB0121134102
:100DE000026E89B202EBC10213F0010F53680AD1FF
:100DF000132B01DC013353601378032B17D8DFE882
:100E000003F02319130913F1130FA4BF03F1FF33E8
:100E10005360F1E7536813F1140F29D0142B06D156
:100E200002231370012003E05368112B15DD00200D
:100E300010BC7047536813F1140F15D0142BF6D162
:100E4000022313700020F3E753681133EFDB012016
:100E500000231070536010BC7047032300211370EF
:100E60000120516010BC7047002313700120DFE7A0
:100E700000201070DCE700BF38B50C46436805461B
:100E80000121185D01F068FB6B680021185DBDE869
:100E9000384001F04DBB00BF38B50C4683680546AD
:100EA0000121185D01F058FBAB680021185DBDE819
:100EB000384001F03DBB00BFC36833F81130134127
:100EC000DB0709D4036933F8113043FA02F080F0EC
:100ED000010000F001007047002070472DE9F84F35
:100EE00090F80090836D4365B9F1020F054600F05C
:100EF0001D81B9F1010F00F0528101F033FB6A6DE1
:100F0000AB6BA865002BA0EB02006861C8BF05F1C0
:100F1000340408DD2046FFF715FE022101F062F9D6
:100F2000AB6B002BF6DC6B78002B00F073812C6927
:100F3000E86800231AB2013330F8121024F81210B6
:100F40006A78DBB29A42F5D8002785F85C70002AEF
:100F500000F06281AB78002B53D04FEA470A00269D
:100F60004FF00109324639462846FFF731FF002885
:100F700041D0AB782A6E07FB036309FA06F812F832
:100F80003330013B012B1FFA88F140F28D80EA6873
:100F9000E86932F80A30002843EA010322F80A30EF
:100FA00070DD4FF0000B5C4605F1180805E00134D8
:100FB000EA69E4B29442A34664DA59464046FFF730
:100FC0005DFA0278BA42F2D14278B242EFD1594684
:100FD0004046FFF703FD082101F004F9E7E7EA685E
:100FE00032F80A3023EA0808214622F80A8005F17F
:100FF0001800FFF76FFB0136AB78F6B2B342B1D8F9
:101000006A780137FFB2BA421146A4D8EB69002BC7
:1010100020DD00210C4605F118063046FFF72EFAB8
:10102000EB680178427833F811301341DF070AD4B6
:101030002B6933F8113043FA02F2D30703D4426824
:101040006B69134443600134EB69E4B2A342214667
:10105000E3DC697899B1EA682869148803889C42BE
:1010600061D14B1EDBB202EB4303014605E032F8CF
:10107000024F31F8020F844255D19342F7D100203C
:10108000BDE8F88F022001F0A7F8034601465E7024
:101090001F7005F13400FFF735FB0136AB78F6B26F
:1010A000B3423FF65FAFABE795F85C30013385F8AC
:1010B0005C30082001F090F86B6A0770002204464B
:1010C0004670426003B11B6895F85C20012A86D9FE
:1010D000013A85F85C20002105F1180818E095F820
:1010E0005C20E968013A85F85C2093F800E05B78C1
:1010F00031F81E2009FA03F3134321F81E30FFF7DD
:10110000B3FC082101F06EF86B6A03B11B686168DB
:101110005A6891424046E2D00136AB78F6B2B3420B
:101120003FF620AF6CE70120BDE8F88F4378002B35
:101130003FF4E3AE4FF00008012741462846FFF791
:101140009BFEAB78EBB14FEA4806002407E023EAA8
:10115000090393530134AB78E4B2A34211D9AB68CD
:10116000185D01F0EBF92A6D07FA04F9935B00288A
:10117000EDD049EA030393530134AB78E4B2A342C0
:10118000EDD86B68002113F8080001F0E5F908F1CB
:1011900001086B785FFA88F84345CED8ADE68378CE
:1011A000002B3FF4AAAE002631462846FFF774FE16
:1011B0006B7823B309FA06F71FFA87F80024FF4378
:1011C00009E031F812303B4021F8123001346B78DD
:1011D000E4B2A34213D96B68185D01F0AFF922B2F3
:1011E0001346296D0028ECD031F8122048EA02029B
:1011F00021F8132001346B78E4B2A342EBD8AB683A
:101200000021985D01F0A8F90136AB78F6B2B3423F
:10121000CAD872E685F85C30EB69002B3FF7F9AE6F
:101220002DE700BF114A137CD80703D4990703D5D3
:1012300011207047082070475B0712D4D37B93B10D
:10124000FF2B0ED003EB83030948C3EBC30380FBE2
:1012500003201844DB17D3EBE01314BFD8B20120EE
:101260007047232070470520704700BF0097FF1F7D
:10127000818080800F4A137CD80703D4990703D557
:1012800003207047012070475B0710D4D37B002BED
:10129000F8D0FF2B0BD00848C3EBC30380FB03201F
:1012A0001844DB17D3EBE013ECD0D8B2704707201B
:1012B000704700BF0097FF1F8180808008B5102015
:1012C00001F026F90B4A0C4B1268172033F8121064
:1012D00001F020F80948FFF70DFD094B202103F12B
:1012E0003F0203F8011F9342FBD1064B002283F813
:1012F0003F2008BD348CFF1FBC5C00001C97FF1F03
:101300008397FF1F8497FF1F2DE9F04FA44CA54D35
:1013100000268DB02046EE712E726E72AE72EE72A5
:10132000FFF7DCFDE369B342814640F3928031462A
:10133000DFF87C820CE0062B21D0072B40F09E8149
:101340000123EB720136E369F6B29E42314619DAA7
:101350009548FFF793F8074691487A783978FFF770
:10136000ABFD0028EED03B787A7803EB830308EBE3
:1013700043039B5C052BDED101236B72E2E7012363
:10138000AB72DFE7B9F1000F65D1002B09DD626AAE
:10139000002A00F079811068844A4168914200F285
:1013A0007881DFF81492E87BD9F800200A92696905
:1013B0000A9A0028A2EB01020CBF64200A20002137
:1013C000904229736973A97380F04F818B4240F377
:1013D000CF82774EDFF8CC8104918B46099107913B
:1013E0000691089105918A46039101276E48FFF7FF
:1013F00045F86B7901784278C3EB031301EB810167
:101400009B0003EB410333449B5C152B00F0D88019
:10141000162B00F02D81172B00F02D81112B00F0E1
:101420003581122B00F0FC81132B00F00082142B6D
:1014300000F00C821C2B00F02682192B00F0638236
:101440001D2B00F08E821A2B049B08BF01230493EE
:10145000B8E00028A5D0E979524A00206871002937
:1014600000F0548101215171002B40F3A38200212F
:10147000DFF83C81DFF844910E464B48FEF7FEFF53
:101480004368002B46D10378417895F806C0DFF811
:1014900014A14FEA830E0EEB030208EB4202575CE5
:1014A000BCF1000F40F049810E2F00F0A181102FF8
:1014B00000F038819AF80020002A40F0A0816A7874
:1014C000002A00F03A8102236B710378427803EB23
:1014D000830308EB4303991891F87870002F00F00C
:1014E000DB81A7F12003DBB25E2B40F25B81152F7D
:1014F00000F00C82162F00F02082172F00F02B82B4
:101500000E2F00F035812B78002B40F05181102FE9
:1015100040F089810136E369214AF6B29E423146A4
:10152000ABDB926B002A7FF730AF0021DFF870A0B1
:10153000204E8846012794F84C30E26B33B1DAF83C
:1015400048308B42D4BFDAF8442000238B4280F22B
:10155000E480002A00F0E38001338B425268F8D126
:1015600084F84C70A1646264DFF83490002A00F0C3
:10157000D68012681378527803EB830302EB43039F
:1015800008F1010836F8130002F006F9DAF83830ED
:101590005FFA88F843454146CDDCD9F81C30F4E6C3
:1015A0001C97FF1F0097FF1F3497FF1FE093040055
:1015B000BC5E0000445C0000CC97FF1F83200882C3
:1015C00088F80C700BF1010BE3695FFA8BFB5B454C
:1015D00059463FF70BAF039B002B75D0EC7BB64B06
:1015E000FF2C00F0078201349A7B597B187BDC7357
:1015F0000023009302F05CFAFFF714FE404244B26D
:10160000BAF1000F7AD0FFF70DFE404246B294B116
:101610008EB1204603F04CFCA84903F09DFC03F07A
:10162000EBFD44B2304603F043FCA44903F094FCC4
:1016300003F0E2FD46B2079B002B00F00181FFF7AB
:1016400019FE404247B2069B002B00F0F380FFF7E3
:1016500011FE404243B23A463146204602F0D0F9EC
:10166000D9F800300B930B9B6B610DB0BDE8F08F88
:1016700088F80D70A6E788F80E70A3E70E2B40F0EF
:10168000C1810123EB715DE65368FFDE0123039303
:1016900098E76A7907788A4E90F801E0C2EB021267
:1016A000910007EB870701EB4702164416F80EE09E
:1016B000AEF120025E2A40F2CC80BEF1080F00F0AD
:1016C0006281804A42606CE6BAF1000F00F004814A
:1016D000EC7B794BFF2C40F00A819A7B597B187B7D
:1016E0000023009302F0E4F9089B002B00F009812D
:1016F000FFF798FD44B2BAF1000F84D1059B002B8F
:1017000000F0C680FFF78EFD46B280E7117A00290F
:1017100000F0C48002226A71A6E63FF421AF0023E4
:101720001B78FFDE9AF80120002A00F0BC809AF8AE
:1017300000208AF801C0002A61D16879C0EB00124C
:1017400092000EEB030C02EB4C024244525C002A66
:1017500018BF174602283FF4C4AE734401EB43039D
:10176000594A32F8130001F075FF0E2F7FF4CBAE0B
:101770006B78002B3FF4CEAE0023082F6B701BD18B
:10178000524953480A783E3282FB09AB02EB0B0701
:10179000D317C3EB6713C3EB8313D31A20220B7049
:1017A000C254B7E6384602F0A5F82B78002B3AD0A1
:1017B00000232B70082FE3D0A7F12003DBB25E2BB0
:1017C00000F2C180DFF804C1DFF804A19CF800E05A
:1017D0000EF1010383FB09011944DA17C2EB611210
:1017E000C2EB82129B1A8CF800300AF80E7091E658
:1017F0009AF80020002A43D101238AF800300123FF
:101800006B71037841784FEA830E0EEB030208EB0D
:101810004202501890F83C70002F9ED1575C9CE714
:101820004FF0010ACEE66B78002BA5D1C2E7012369
:101830000593C7E6049B4BB3FFF71CFD43B20AE7D1
:10184000099B3BB3FFF716FD47B2FCE60123089363
:10185000B8E6DFF878801F4E98F800C0DFF8709087
:101860000CF1010282FB0667D619D117C1EB661194
:10187000C1EB8111521A88F8002009F80CE020E72A
:101880008AF800C01BE6012306939BE6049BE2E670
:10189000059ED0E6099FD6E69F5C22E69279002A53
:1018A0003FF4E2AD36E79AF8003001228AF80120D1
:1018B000002B3FF408AEA2E70097FF1F3333333FFE
:1018C000BC5E0000A0860100445C00001897FF1F6A
:1018D0008497FF1F83200882059B002B7FF4F8AEBE
:1018E000089B002B6BD0EC7B494BFF2C7AD000235C
:1018F0000134AA7B697B287B0093EC7302F0D8F853
:10190000F2E6089C7CE6012307935BE6DFF808A17A
:1019100000234FF0010E1A46194618468AF800E0D7
:1019200002F06EF84FF0000E734672467146704634
:101930008AF800E002F064F8E5E5DFF8DCA00023B7
:101940004FF0020EE7E7182F7FF4E4ADAB7983F098
:101950000103AB71DEE5DFF8C0A000234FF0040EF9
:10196000D9E7012309932DE6099B6BBB049B5BBB65
:1019700000240094234622462146204602F098F88F
:10198000EC732C746CE6DFF894E0224E9EF80010A5
:10199000DFF88CC03E3181FB0667CE19CA17C2EB57
:1019A0006612C2EB82128A1A20210CF802108EF8FD
:1019B000002086E6A26B002A3FF7B7ADF1E4069B54
:1019C00013B9079B002BCFD0EC7B114BFF2C8ED192
:1019D0009A7B597B187B00231E46009302F068F81F
:1019E000344628E69A7B597B187B059B009302F0CE
:1019F0005FF87DE69A7B597B187B0023009302F009
:101A000057F8F9E5102B04BF01232B729AE400BFAD
:101A10000097FF1F832008820099FF1F1897FF1F60
:101A20008497FF1F2DE9F041404D414C2B6884B055
:101A300002932368029A03F6B833934251D33D4F81
:101A4000FFF762FC3B7A002B36D03B4DEB69002B55
:101A500032DD0021394EDFF800810C4607E02C2BE7
:101A60002DD00134EB69E4B2A342214624DD344891
:101A7000FEF704FD4368002BF3D102787B794178AF
:101A800002EB82025200C3EB031302EB83033344E5
:101A90005B5C0BB93244535C2E2BE0D1D8F800309C
:101AA0000533FF2BC8F8003015DC264A32F8131036
:101AB000172000F02FFCD4E704B0BDE8F081D8F87F
:101AC0000030053B042BC8F80030EEDC0523C8F8D5
:101AD00000300421ECE7FF23C8F800304FF6FF7117
:101AE000E6E7162000F08EFA05210646164802F0B9
:101AF00063F8304603F0DCF94FF06A5103F02CFA3A
:101B0000124903F029FA02F0F5FD04260B460246BD
:101B100000960F4800F08CF801210E4802F04CF8B6
:101B20002B680393039B236089E700BFCC97FF1FBB
:101B30008097FF1F0097FF1F1C97FF1FBC5E0000D0
:101B40003497FF1FBC5C0000945F000033335340A8
:101B5000448CFF1F9C5F0000348CFF1F10B584B0C5
:101B60000B4C0C4B00930123019320460A4B0A2295
:101B70000621FFF753F82046084A094903F062FBA3
:101B8000084A094B12680392039A1A6004B010BD08
:101B90001C97FF1FA85F0000A05F0000308CFF1F94
:101BA000950C0000CC97FF1F8097FF1FF0B50746EC
:101BB0008BB0002A33D0012A08BF0A2251B3212456
:101BC00000E0F4B2B1FBF2F502FB1511C8B209292D
:101BD00000F1300198BFC8B20AA988BF373021444C
:101BE00088BFC0B201F8240C661E2946002DE8D13A
:101BF00033B1013CE4B20AAB23442D2203F8242C78
:101C00003B6801AA11195B683846C4F12202984763
:101C10000BB0F0BD30228DF825202124E8E70368C1
:101C2000C9B21B6898470BB0F0BD00BFFFFFFFFFB4
:101C30002DE9F04385B080461946104616461F46EA
:101C40009DF8305003F044F8002840F0B18027F0B0
:101C50000044304621464FF0FF32594B03F038F82C
:101C600098B9304621464FF0FF32554B03F012F839
:101C700058B9D8F8003053495B684046032298476A
:101C80008146484605B0BDE8F083304639464FF0FE
:101C900060424D4B03F012F8002870D130463946AF
:101CA0004FF06042494B02F0EBFF002867D130460D
:101CB00039460022002302F0E3FF002863D1814669
:101CC000002D65D0424B00240022104619463AA34D
:101CD000D3E9002302F062FD01340B46E1B28D42EC
:101CE0000246F2D83046394602F0A6FB0F460646B9
:101CF00003F004F8044602F0DBFC02460B463046D3
:101D0000394602F097FB4B4606460F460A2221460B
:101D10004046FFF74BFF0F2D28BF0F2501352E231F
:101D20008146EDB28DF8003001240022294B304667
:101D3000394602F033FD0F46064602F0DFFF04ABE2
:101D40002344C0B200F1300203F8102C02F0C0FCB2
:101D500002460B463046394602F06CFB0134E4B2D1
:101D6000AC4206460F46E0D1D8F8003022465B6808
:101D7000404669469847484605B0BDE8F083D8F824
:101D80000030154978E707F100474FF0010997E760
:101D900000220F4B3046394602F04EFB02F0AEFFF8
:101DA0004B4601460A224046FFF700FF814668E79E
:101DB000D8F8003009495FE7000000A09999B93FC1
:101DC000FFFFEF7FBC5F0000FFFFEF41FFFFEFC1B0
:101DD0000000E03F00002440B85F0000B45F000056
:101DE000374A384913681B06FCD40B6813F080038C
:101DF000F8D172B634490A78002A5FD0334A3448A1
:101E0000F0B4344C176806682568D4680C303E443A
:101E1000143200681268304F35442C442044024488
:101E2000C2F34E022D4E2E482E4D2F4C42F400424E
:101E30003A60376806682D682C4A24680C303E44A6
:101E4000006812682A4F35442C4420440244C2F3EF
:101E50004E02284E2848294D294C42F400423A604F
:101E6000376806682D68274A24680C303E440068AD
:101E70001268254F35442C4420440244C2F34E02DC
:101E8000224E2348234D244C42F400423A603768E6
:101E900006682D68214A24680C303E4400681268A8
:101EA00035442C4420440244C2F34E021C4842F400
:101EB000004202600B7062B6F0BC704762B67047B9
:101EC00024B0034024B00B40C597FF1F38B0034037
:101ED0003CB0034040B003402CB0034058B0034036
:101EE0005CB0034060B0034064B003406CB003409A
:101EF00030B0034038B00B403CB00B4040B00B401A
:101F000044B00B404CB00B402CB00B4058B00B40D1
:101F10005CB00B4060B00B4064B00B406CB00B4049
:101F200030B00B4030B42948294A2A4B2A4D60244E
:101F3000E121047011701B78284C082B30D00A2B3B
:101F40002748284937D00C2B0CBF35223D221223BD
:101F50002A60236002600B60234B24491B78244ACB
:101F6000BBB101230B601360224B23491B78234A2A
:101F7000012B26D9042B0FD9082B1ED9102B94BF67
:101F8000862387230B6013601D4B01221A7030BC1F
:101F900070470B601360E7E784230B601360F3E77F
:101FA00000F58E200F490830012213232A60236098
:101FB00002600B60D0E73922F7E785230B601360DE
:101FC000E2E780230B601360DEE700BF00400740BC
:101FD00001400740388CFF1F08B003400CB003409D
:101FE00008B00B400CB00B40C897FF1F20B0034057
:101FF00020B00B40398CFF1F24B0034024B00B40AD
:10200000C597FF1F28282FD8334B2DE9F0411E5CC0
:10201000FF2E2BD0314B1B78002B2AD132062CD42B
:1020200072B62F4D2F4C2F46012326602B7062B6BF
:1020300072B623681B060CD43B781BB9F4E72B78E7
:10204000002BF1D062B601F0BBFE72B62368180611
:10205000F5D5254B1B6800222A7062B6234A1078FA
:1020600043FA00F0BDE8F081002070470020BDE891
:10207000F081FFF7B5FE3206D2D572B61C4DDFF8FF
:102080007C801C4C06F04007FFB206F03F06D8F8F3
:102090000030DFB123F01003C8F8003001232660C0
:1020A000134A2B7062B672B6236819060CD41378E3
:1020B0001BB9ECE72B78002BE9D062B601F080FE6B
:1020C00072B623681B06F5D50B4BC3E743F010032C
:1020D000C8F80030E2E700BFC05F0000C597FF1FEF
:1020E000C797FF1F00B0034010B00340C497FF1F05
:1020F000C697FF1F00B00B4010B00B400CB00B4058
:102100000A4A0B49136843F4805313600B7843B9B0
:10211000084BC0221A70084B80F30C0000B21880E4
:102120007047044B80221A70F5E700BF2C800440F2
:10213000C897FF1F21C00C4000C00C4008B5FFF736
:10214000BDF8FFF76FFC01F03BFEFAE708B5104C55
:1021500008E0236859050DD423681A050FD42368B5
:10216000DB0411D423685803F3D500F0E5FB2368A2
:102170005905F1D501F080FF23681A05EFD502F06B
:1021800011F82368DB04EDD502F0A2F8EAE700BFFE
:102190003480044008B5FFF7D9FF00BF014B10227F
:1021A0001A80704700200540704700BF094908B5F4
:1021B0000B6830B16A461844A2F58052904202D2B0
:1021C0000860184608BD03F049F80C2303604FF07F
:1021D000FF3008BD3C8CFF1F03F06EB803F06CB8F5
:1021E00003F072B803F070B8F0B44D1E2E46002410
:1021F00000E00134B0FBF2F302FB1300092800F108
:1022000030078ABF3730F8B2C0B206F8010F18465F
:10221000002BEED10A1953704CB1107815F8016FEC
:1022200028700133E01A834202F80169F5DB0846A1
:10223000F0BC704710B40F4B53F8302092F8804236
:102240002CB1012369B182F8803010BC704703EBD8
:10225000C0035B681A6841B922F002021A6010BC20
:10226000704782F8003110BC704742F003021A60D8
:1022700010BC7047EC5F00001C4A02EBC003012950
:102280005B6811D004291BD052F83000002280F87E
:10229000802229B1022920D0032922D01A60704758
:1022A0004FF480721A60704752F830004FF4A272F7
:1022B00080F880121A601A6822F020021A607047B3
:1022C00052F830104FF4A272012081F880021A6097
:1022D0001A6842F020021A60704740F203121A6036
:1022E00070474FF481721A60704700BFEC5F0000C6
:1022F00030B4054B054D064C002210211A602A60AF
:102300002060196030BC704714D0034004D00340F3
:1023100000D00340282838B52ED0002904464FDDD0
:102320005F4B1B78012505FA03F28A4202D8212867
:1023300037D938BD0338C2B2012A3AD9202C4AD045
:10234000192C48D0574A126802FB011222FA03F3F3
:102350001D2800F29B80DFE800F0928B847D999924
:10236000766F99999999999999999968615A539918
:102370004C99999999999945494B1B780B2B08D9F8
:102380000C2B1CBF0C3B19410846BDE83840FFF739
:10239000B7BEC3F10C0399400846BDE83840FFF7CB
:1023A000AFBE2946FFF746FF2946BDE83840FFF794
:1023B00063BF3D4A126802FB011222FA03F3C7E72A
:1023C0002128B6D80021FFF735FF20460121BDE8BE
:1023D0003840FFF751BF354A126802FB011222FA5A
:1023E00003F3B5E73249334A0B604FF4517313607E
:1023F00038BD3149314A0B604FF45173136038BD19
:102400002F49304A0B6040F24443136038BD2E49D7
:102410002E4A0B6040F24443136038BD2C492D4ACC
:102420000B6040F24443136038BD2B492B4A0B60CC
:1024300040F24443136038BD29492A4A0B6040F2F8
:102440004443136038BD2849284A0B6040F2444396
:10245000136038BD2649274A0B6040F2444313609D
:1024600038BD2549254A0B6040F24443136038BD0E
:102470002349244A0B604FF45173136038BD22493D
:10248000224A0B604FF45173136038BD212C3FF684
:1024900050AF7F29D4BF00210121204693E700BF20
:1024A000408CFF1F088003400890034008800B40C9
:1024B00010800B4048A0044018800B404CA0044002
:1024C0001880034008B004401080034004B004406A
:1024D0004080034018C004403880034014C00440CA
:1024E0002880034010B00440208003400CB004401A
:1024F0003080034010C00440488003401CC00440AA
:1025000018900340349004401090034030900440F1
:1025100038B1102828BF1020044AC3B210781370B5
:102520007047024A0123107813707047408CFF1FD8
:10253000212801D8FFF77EBE704700BF212806D8AA
:10254000044B53F8303093F80002C0B270470020BB
:10255000704700BFEC5F0000212801D8FFF78CBE58
:10256000704700BF72B60C490C4B0D4A1B680868D7
:10257000126862B6520102D5322B88BF0130094978
:10258000C3F5BB334FF47A72FF33A1FB031302FB95
:1025900000F000EB93107047CC97FF1F18E000E0AD
:1025A00004ED00E0ABAAAAAA2DE9F843054672B6ED
:1025B000204F214B214A1B683C68126862B65201C9
:1025C00002D5322B88BF013495B3C3F5BB331C4E03
:1025D000DFF86490DFF86480FF334FF47A72A6FB73
:1025E000031302FB04F404EB931472B6D9F8001041
:1025F0003A68D8F800E062B6C1F5BB33FF33A6FBFA
:1026000003031EF0806FC4EB93134FF47A7002D073
:10261000322988BF013200FB0233B3F57A7F04D33D
:10262000013D05D004F57A74DFE701F0C9FBDCE772
:10263000BDE8F883CC97FF1F18E000E004ED00E050
:10264000ABAAAAAAF8B52D4B2D49DFF8D0E0DFF8E8
:10265000D0C02C4E2C4D2D4C2D4A2E4F4FF4000047
:1026600018604FF0807018604FF0007018604FF0E5
:10267000806018604FF00060186000200860282318
:102680004BF6FF71CCF80010CEF8003033601360C9
:102690002B6023603B60B3629362092245F8242CCF
:1026A000C4F8D80F05F57F65C7F8D41F07F5FF27D5
:1026B00007F5FA67C6F8F83F2B6006F5FF26C4F861
:1026C000D42F05F5FD2504F5FF24386006F2F476D5
:1026D0001148316005F5FF6504F5FD642B6023604A
:1026E0000260FFF71FFC1920FFF75EFF00F088FE75
:1026F00040F21310BDE8F840FFF756BF08E100E0D4
:102700000480034014800340248003402C80034055
:102710001C8003403480034000800B400C80034049
:1027200008800340431E062B14D872B60A4951F89C
:10273000230068B170B4094C058834F8132046684A
:1027400041F82360521B24F8132062B670BC704716
:1027500062B67047002070473498FF1FF09AFF1F41
:10276000013806280BD872B6074B53F8203043B116
:1027700000205B680130002BFBD162B6704700205F
:1027800070471846F9E700BF9498FF1F30B472B63F
:10279000434A13781C0706D5424B196A00295BD0BF
:1027A000996A002966D05378190706D53D4B196CF4
:1027B000002969D0996C00295ED093781B0706D553
:1027C000384B196E002963D0996E002956D0D37802
:1027D0001D0708D5334BD3F88010002956D0D3F805
:1027E000881000294CD013791C0708D52D4BD3F83D
:1027F000A01000294ED0D3F8A810002942D0537958
:10280000190707D5274BD3F8C010002944D0D3F8B7
:10281000C81091B193791B0708D5224BD3F8E0205B
:10282000002A3BD0D3F8E8201D243AB162B61E4BF3
:1028300000221A7030BC01F0BDB819241A491B4D92
:102840000A7843F8345003EBC4030830013A586067
:102850000A7062B630BC70470422134C144D2178C4
:1028600043F8325003EBC20308304A1E586022700E
:1028700062B6EFE70524E1E70924DFE70D24DDE791
:102880001124DBE71524D9E70822E6E71022E4E764
:102890000C22E2E71422E0E71822DEE71C22DCE744
:1028A000846100000080FF1FD598FF1FC800400012
:1028B00088004000431E062B1DD81B4A400140F0F3
:1028C000100030B4104472B6184CE25C032A1BD8D6
:1028D000DFE802F00212151703220D88E25410F00F
:1028E000080F14BFC823882343EA05430831036057
:1028F000416062B630BC704708300222EDE7052225
:10290000EBE708300422E8E7094A52F8230038B11F
:10291000084A52F82300416042F8231062B6E9E702
:1029200042F82310034AF7E70080FF1FE498FF1FD7
:102930009498FF1FB098FF1F2DE9F04FDFF818B3F0
:10294000DFF818A387B044E0AE4F4FEA930807EBD7
:10295000C809013CD9F8042003F00803E4B2A2F14D
:10296000080003F0FF05002B40F00A8157F83830CB
:102970001B0C99B222F8081C002B00F0F880A24B27
:1029800022F8065C42F8045C53F82420002A00F088
:102990001E829E4E56F8243058609D4D46F8240005
:1029A00035F81430194425F8141000F0E3FF00281E
:1029B00000F01182974A984B19F0080F00F10800B7
:1029C00018BF1346C9F8040047F8383008238BF8BD
:1029D00000309BF80040E4B265071AD58F4B1B7896
:1029E000A3B18F490A7802F0FF0322B1013BDBB2A9
:1029F0000B7003B900BE8B490A7802F0FF032AB1BD
:102A0000013BDBB20B70002B00F0B78104238BF885
:102A1000003004F0080303F0FF02002B00F0D48024
:102A20009AF80030DBB21C098ED19B08754C54F823
:102A3000332004EBC301C2F38302013A49680C2A34
:102A400000F29180DFE802F07F7F8F8F8F8F8F8F72
:102A5000468F8F8F07000868734E744A01924A6848
:102A60006C4944F83310724F726040F2816382B255
:102A70006E49306000254FF001099A420D602561D2
:102A8000A56187F8009000F2F080B2F5D06F80F079
:102A90005D82B2F5817F00F0488200F2FC81802ADD
:102AA00000F0C982822A40F0F281B38803F07F03EC
:102AB000072B00F2EC815F4A5F489B001A440570C7
:102AC000457013789D0740F1328480F800904FF0F4
:102AD0000209E1E0554B01931B684BB3DFF880E13D
:102AE000534F564ABEF800103878157840290E46E4
:102AF00045F0020C28BF4026002880F00100387005
:102B0000A1EB06010CBF8820C82004EBCC0789B2DA
:102B100085F0010540EA06407B60AEF8001044F8FD
:102B20003C0033441570002900F00481019A1360C1
:102B30003D4B1A88B2F5A06F15D100219A785970D3
:102B40003F4B1A700FE0384E308842F2210290421B
:102B500000F0588130683B4A334D904200F0EE80DF
:102B60002C4A44F83320384A012313702EE7294AAF
:102B7000294B19F0080F18BF134647F8383025E7DE
:102B800000F018FF314A324952F82430002B00F08F
:102B9000298158680D5D42F8240003F10802C9F844
:102BA0000420032D05D8DFE805F05D022926022266
:102BB0000A551A8819F0080F0CBF8823C82343EA66
:102BC000024347F8383001E7E00700F1D9802106D9
:102BD00000F14481A20706D51E4A1F49137802203E
:102BE000DBB213700870E30602D51B4B10221A707B
:102BF00007B0BDE8F08F04220A55DAE705220A552E
:102C0000D7E700BF0080FF1F3498FF1FD497FF1F36
:102C1000F09AFF1FC800400088004000E098FF1FA6
:102C20005198FF1F0299FF1FCC98FF1FD097FF1FDD
:102C30005098FF1FC0200740D898FF1FD498FF1F4F
:102C40009820074021090002942007409498FF1F14
:102C5000E498FF1F8820074080200740902007400D
:102C6000F097FF1F03220A55A3E740F621239A425B
:102C700000F0CB8100F2FC80B2F5106F00F0AF8164
:102C800040F621139A4251D0B2F5086F40F0FF8010
:102C9000B24BB3481B780370F188494580F09A83A2
:102CA000B04A157845F0020604EBC60340298E466B
:102CB000586028BF4FF0400E002300EB0E08CEEB0B
:102CC00001014FEA0E4C02934FF00109C8204CEA73
:102CD000000C9DF8083044F836C085F001003B70C8
:102CE0001070A14EDFF87CC2002940F0F480BEF1E4
:102CF000400F1BD140F0020004EBC004029BC4F85B
:102D00000480994E0C04002B40F0FC8044F08804B1
:102D100046F8304087F80090157008EB0103402911
:102D200004D10021914A019811800360904A012347
:102D3000137018E7402E18BF0023F7E668688D4A25
:102D400090427FF40DAF874A8B4F10783D788B4EC1
:102D500009783170002D40F0020180F001061670F4
:102D60000CBF8822C82244F8312004EBC10185F051
:102D7000010500223D704A60F2E600F0FDFF45E6E5
:102D8000794B7B4877491A614FF0020E80F800E0DA
:102D90007B4F0A707B49196099607B4E7B4D7C4C60
:102DA0009A610D213970FF213170DFF808E2297036
:102DB0002270784D784A8EF800109F27012406F87B
:102DC000047C5D600470DA6007B0BDE8F08F43F802
:102DD0002400724EE1E5724A47F838001378013357
:102DE0001370F3E50B5D032B00F2988001A252F8FB
:102DF00023F000BFCD290000CD290000C32E000024
:102E0000C92E0000674A0D784878157050708D788B
:102E1000C8789570D0700D79106815714D7955711D
:102E200086288D79957101F1070150D04D4A524F96
:102E300010783D7880F0010E002D40F0020082F8FD
:102E400000E00CBF8822C82244F8302004EBC00008
:102E500085F0010500223D7042607BE648494B4BFE
:102E600080220D2008701A70A2077FF5BCAEB3E671
:102E700042F221239A4200F0E48042F221339A4246
:102E800000F0C38042F221039A423FF44FAF3C4A24
:102E90000F2313704AE740F202339A4240F0B180A8
:102EA000B28802F07F02072AF1D87388002BEED196
:102EB00033490293920011440A7842F002020A70E8
:102EC000A7E000230B5581E501230B557EE5364A2B
:102ED0000F201070AAE740297FF60CAF40F00200E7
:102EE00006EBC002029BC2F80480ABB12F4A224B12
:102EF0008CF8005083F80090403908F1400346F800
:102F000030200FE744F0C80487F80090157008EBF4
:102F1000010346F8304002E71A4AE8E719F0080FC3
:102F20000CBF022303230B5550E5B28802F07F0249
:102F3000072AACD87388002BA9D1114902939200BB
:102F400011440A7822F002020A7062E0184B5868B5
:102F500000289CD07188B58833E000BFE098FF1F3F
:102F6000D898FF1FD498FF1F0080FF1FF097FF1F06
:102F700094200740020001005098FF1FF898FF1F9F
:102F8000C02007408800400088200740802007407C
:102F900098200740F497FF1F5498FF1FD497FF1FF6
:102FA000D598FF1F0C9BFF1F5198FF1FC8004000C2
:102FB0008C6100008C2007400C33586800283FF4D7
:102FC00066AF1A888A42F7D15A88AA42F4D1090A10
:102FD00003290CBF90F80090B3F808905CE6B24B60
:102FE000B24DB2781A7005F1E00602E00835AE4243
:102FF00030D02B6A1806F9D5686A083800F0DAFC78
:10300000F4E7B2F5A06F7FF442AF002302934FF0D4
:103010000109002188468C468E460846A44A157848
:1030200045F0020604EBC603B9F1000F58600CBF6F
:103030008820C8204BE69F484FF002090570457074
:103040002AE69D489D4B9E4A0068B178186002951B
:103050001170DEE79B4B9C4A9C499D4E9D4D9E48BE
:10306000039604954FF000090290884605971E4686
:103070001546306828B1476800F09CFC3846002FA0
:10308000F9D100233360039B28681A46002342F8D5
:10309000293028B1476800F08DFC3846002FF9D15F
:1030A000029B00221B782A6048F8042F049A4FF0F4
:1030B0000001023B22F81910032B07D8DFE803F0C8
:1030C0006D026D02029B4FF001021A70029B09F122
:1030D00001090133B9F1070F06F1040605F10405F2
:1030E0000293C6D17D4D7E4E2B78059F0022327013
:1030F0007C4A1907137000F1C4807B4A6B78137007
:1031000000222263A2631A07DFF8A08176D4AB788D
:10311000764ADFF89881137000221B072265A265AA
:1031200057D4EB78724ADFF88481137018074FF098
:1031300000022267A26700F18D802B796D4ADFF8CB
:103140006C81137019074FF00002C4F89020C4F886
:10315000982068D4684A6B7913700022C4F8B020B4
:10316000C4F8B8201A07DFF8448100F1CD80AB79AC
:10317000624A4E4D137000221B07C4F8D020C4F8D9
:10318000D8200FD497F80090002289F00103029311
:10319000C4F8F020C4F8F8203BE7029B4FF000028F
:1031A0001A7093E700F0E6FB002800F0EC8008308E
:1031B000534BC5F8E400C5F8E03000F0DBFB002815
:1031C00000F0DB8008304F4BC4F8EC00C4F8E83066
:1031D000D8E700F0CFFB002800F0B1800830484B62
:1031E000C8F86400C8F8603000F0C4FB002800F0A4
:1031F000A1800830434BE066A36692E700F0BAFB7B
:10320000002800F0D78008303D4BC8F84400C8F8CB
:10321000403000F0AFFB002800F0C7800830394B89
:10322000E064A36473E700F0A5FB002800F093803E
:103230000830334BC8F8A400C8F8A03000F09AFB5F
:10324000002800F0828008302E4BC4F8AC00C4F88F
:10325000A8307FE700F08EFB002800F0A080083047
:10326000274BC8F88400C8F8803000F083FB0028A2
:1032700000F08F800830234BC4F88C00C4F88830ED
:103280005BE700F077FB002800F09F8008301C4BC4
:103290006062236200F06EFB002800F0918008302D
:1032A000184BE062A36228E7E098FF1F0080FF1F31
:1032B000D498FF1FD898FF1FCC97FF1F149BFF1FA8
:1032C0001099FF1F3498FF1F9498FF1FAC98FF1FA1
:1032D000D497FF1FF09AFF1FE498FF1F846100003E
:1032E000D598FF1FC4200740C8200740CC200740C6
:1032F000D0200740D4200740D8200740DC200740DA
:1033000088004000C800400000F034FB78B308306B
:10331000394BC8F8C400C8F8C03000F02BFB00B32C
:103320000830364BC4F8CC00C4F8C8301FE74FF063
:103330000209B1E43378A06601333370F1E63378E3
:10334000C8F86000013333704EE73378C4F8A80042
:1033500001333370FEE63378C8F8A00001333370D0
:103360006CE73378C4F8C80001333370FFE6337874
:10337000C8F8C00001333370CFE73378C4F8E800F1
:1033800001333370FEE63378C5F8E0000133337063
:1033900013E73378C4F8880001333370CDE633780F
:1033A000C8F88000013333705FE73378A0640133DD
:1033B0003370ACE63378C8F840000133337028E747
:1033C0003378A0620133337097E63378206201339B
:1033D00033705FE7B9F1400FCE464FF0000328BFCE
:1033E0004FF0400ECEEB09014FEA0E4C00EB0E08F9
:1033F00002934FF0010911E688004000C800400028
:103400002DE9F843204C00F0CFFF002204F1E80042
:1034100023461A605A60083383424FF00001F8D106
:103420001A4A1B4F13681B4D1B481C4EDFF878804F
:10343000DFF878C0DFF87890DFF878E043F4802395
:103440001360C4F307233B70C4F307432B70240EAF
:10345000FF2302F528320470114D88F8003011481E
:103460008CF80030D4323370012389F80030702694
:103470008EF800104FF40074102107F8183C2E70DD
:1034800004601170BDE8F8830080FF1F34800440A1
:103490009C200740B0200740B42007401020074080
:1034A00049E400E008E100E0802007408820074070
:1034B000942007400021074000F062BB00F03ABBB7
:1034C00000F014BB00F04EBB00F02ABC00F004BCBE
:1034D0000846114600F070BB084600F0F1BB00BF83
:1034E000704700BFF8B5234D2B78002B3FD0224EFC
:1034F00047F2694409E0013C36D033781E4A002B7C
:1035000033D100F05DFC2B788BB30720FFF728F94F
:103510000328F0D800F02EFA0028ECD0174C184DF4
:1035200021886288A3880172C1F30121E4882F7881
:103530006E78AD78477341EA8201C2F3831242EAA2
:103540000312C3F3051343EA84134172A40808214C
:103550008272C37204738673C573018001460720AB
:10356000FFF7A8F90020F8BD034A012313704FF0BC
:10357000FF30F8BDE098FF1FF798FF1F049BFF1F67
:10358000009BFF1F70B5194D2B785BB3184E47F2A7
:10359000694408E0013C22D03378154A03BB00F0AF
:1035A0000FFC2B78F3B10120FFF7DAF80328F1D8EC
:1035B00000F0E0F901460028ECD00E4A0E4B1278DC
:1035C0000272002444729A881868C1F80A0008231D
:1035D000CA810B800120FFF76DF9204670BD044AB7
:1035E000012313704FF0FF3070BD00BFE098FF1F44
:1035F000F798FF1FF698FF1FF098FF1F70B4E9B10E
:10360000124A137831EA030418D01943117090B1AB
:1036100001250F4A941D1646134613F8011B8842D4
:1036200008D0A342F9D1002312F8011B59B101338C
:10363000062BF9D11DB170BCFFF7A4BF08B970BC4F
:1036400070470025E5E7F054F5E700BFF698FF1F47
:10365000F098FF1F020AC12A30B42AD9DF2AD3B258
:1036600021D9F02B5BD0E02B5ED0E22B41D01C3374
:10367000DBB2032B15D8C0F3090090B1314A02F137
:1036800008041546134633F8021B884209D0A342AA
:10369000F9D1002332F8021B00294AD00133042B50
:1036A000F8D130BC70479B0103F4F86300F03F0091
:1036B00018431F2808D80A2819D00B28F1D12B202D
:1036C000002130BCFFF79ABF7F28EAD81E49084482
:1036D00010F8200C0028E4D000F0400303F0FF01B4
:1036E00000F03F0003B1022130BCFFF787BF282064
:1036F000E6E710F0FF00D4D0144B1A789042D0D0F7
:1037000059788842CDD09C78A042CAD0B2B1B9B124
:103710000222002CC5D1985430BCFFF7E3BEC0B2E2
:10372000002130BCFFF76ABFC1B230BC0020FFF7F8
:1037300065BF25F8130030BCFFF7D4BE0022EAE7CE
:103740000122E8E7049BFF1F24610000009BFF1F8C
:1037500030B4C1B10E4A1378194214D023EA0101E2
:103760001170012460B10B4B0025991D13F8012B3A
:10377000904204BF03F8015C01249942F6D11CB1C8
:1037800030BCFFF7FFBE08B930BC70470024EAE741
:10379000F698FF1FF098FF1F020AC12A13D9DF2AEB
:1037A000D3B20AD9F02B50D0E02B52D0E22B39D033
:1037B0001C33DBB2032B24D970479B0103F4F8635D
:1037C00000F03F0018431F2807D80A2817D00B28FD
:1037D000F2D12B200021FFF7BBBF7F28ECD8244972
:1037E000084410F8200C0028E6D000F0400303F055
:1037F000FF0100F03F0003B10221FFF7A9BF28201D
:10380000E8E7C0F309000028D6D010B4194C002313
:10381000224632F8021B88421FD00133042BF8D114
:1038200010BCC9E710F0FF00C6D0134B1A788242D3
:103830001BD05A78824216D09A78824208BF022260
:10384000BAD100219954FFF74DBEC0B20021FFF755
:103850007FBFC1B20020FFF77BBF002224F81320F6
:1038600010BCFFF73FBE0122EBE70022E9E700BFF3
:1038700024610000049BFF1F009BFF1F38B50A4C0A
:103880000A4D2070002329706370A370E3702371C8
:103890006371FFF777FE00B138BD28702070BDE876
:1038A0003840FFF76FBE00BFF098FF1FF698FF1F6C
:1038B0001F2804D80A2814D00B2816D070477F2858
:1038C000FCD80B4B184410F8200C0028F6D010F050
:1038D000400F18BF022100F03F0008BF0021FFF792
:1038E000CDBF28200021FFF7C9BF2B20FAE700BF7A
:1038F00024610000030612D5BF2808D81B4A1368AC
:10390000012B00F03F0029D0022B16D07047DF2892
:103910000AD9EF281BD9154BFF221A607047134BA9
:1039200000221A60FFF7C4BF800111490F4B00F459
:10393000F860012208801A6070470D490B8810B4A6
:1039400043EA801001241460088010BCDEE70849B7
:10395000064B0003022208801A607047044B198846
:10396000002308431360FFF7A3BF00BFFC98FF1FAD
:10397000EC98FF1F72B60D480268B2FA82F31D2B55
:1039800010DC4FF00041D94022EA0102026062B629
:10399000074803EBC303DB00C2180021C1501046E7
:1039A0005160704762B60020704700BF548CFF1F03
:1039B000BC83FF1F0D4B0E4AC31AA2FB03231B0936
:1039C0001D2B0CD80B4A127852B972B60A484FF028
:1039D0000041026821FA03F31A43026062B670479D
:1039E000064A1278002AF0D0FEF7D0BEBC83FF1F33
:1039F000398EE338D598FF1F548CFF1FE098FF1FC6
:103A00002DE9F04710F1800F264D824614BF824603
:103A10006FF07E0A11F1800F1F4689462B7814BF84
:103A200089466FF07E0912F1800F904614BF9046D0
:103A30006FF07E0817F1800F08BF6FF07E076BB341
:103A4000194E44F2D95407E0013C25D033781BBB12
:103A500000F0B6F92B780BB30520FEF781FE0228A3
:103A6000F2D8FFF787FF0028EED0104B80F80AA0AD
:103A7000197880F80B900122062380F80C80477398
:103A80004172027203800146002405203470FEF763
:103A900011FF2046BDE8F087012333704FF0FF305F
:103AA000BDE8F087E098FF1F0199FF1F0099FF1FF5
:103AB00030B4041C18BF01249DF8080011B144F073
:103AC0000404E4B20AB144F002040BB144F0080467
:103AD00008B144F01004044D00232C701A46194616
:103AE000184630BCFFF78CBF0099FF1F38B50F4D4B
:103AF000286878B143880288C118013393420C7A50
:103B000002D24380204638BDFFF754FF00232046F1
:103B10002B6038BD064B1B782BB10320FEF702FE4D
:103B200028600028E6D14FF0FF3038BD0C99FF1F08
:103B3000E098FF1F10B5094C206818B1438818445D
:103B4000007A10BD064B1B782BB10320FEF7EAFD6F
:103B500020600028F2D14FF0FF3010BD0C99FF1FFC
:103B6000E098FF1F044B054A1B6890881BB11A8818
:103B70005B88D31A184470470C99FF1FF09AFF1FF7
:103B80000B4B1B789BB110B50A4C206848B1FFF76E
:103B900011FF002303202360FEF7C4FD30B1FFF7BF
:103BA00009FF0320FEF7BEFD0028F8D110BD7047C5
:103BB000E098FF1F0C99FF1F2DE9F04FDFF8F890F8
:103BC00083B0012289F80020019169B3DFF8EC800D
:103BD000364F019E8346D8F80000B0B3344D448878
:103BE000C4F14001B14228BF314604EB010E00226E
:103BF0001FFA8EFE2A70761AA0F802E000F1080281
:103C000051B1013C224459441BF8014B02F8014FC9
:103C10008B45F9D1B0F802E0BEF13F0F0BD8254A31
:103C200005211170002ED6D10198002389F80030AB
:103C300003B0BDE8F08F4022028001460420FEF769
:103C400039FE0022C8F80020E9E73A782AB3184D77
:103C50004AF2F9244FF0010A07E0013C16D02A7815
:103C6000A2B900F0ADF83A78BAB10420FEF778FDB9
:103C70000728F2D889F800A0FFF77CFEC8F80000FA
:103C80000028ACD10C4B013C1870E8D101234FF057
:103C9000FF302B7003B0BDE8F08F00234FF0FF30F2
:103CA00089F8003003B0BDE8F08F00BFE098FF1F37
:103CB0000899FF1F0299FF1F0399FF1F0499FF1F17
:103CC00000B583B002AB012103F8010D1846FFF7E0
:103CD00073FF03B05DF804FB38B50E4D0E4C286839
:103CE0000123237028B1408800232370C0F14000D5
:103CF00038BD0A4B1B7813B90020207038BD042052
:103D0000FEF72EFD0728F7D8FFF734FE28600028BD
:103D1000E9D1F1E70499FF1F0399FF1FE098FF1F06
:103D2000F8B5114B1B788BB1104E114D346801273B
:103D30002F7064B10F4A63880027177021462380D3
:103D40000420FEF7B7FD376000232B70F8BDFFF7A6
:103D500011FE084B28B1014604201C70FEF7AAFD95
:103D6000F2E71F70F0E700BFE098FF1F0499FF1F04
:103D70000399FF1F0299FF1F38B50E4B1B7873B9CB
:103D80000D4C216861B103F0FF054B880B800420C6
:103D9000FEF790FD256038BD084B01221A7038BD32
:103DA000FFF7E8FD0028F7D00146BDE838400420C1
:103DB000FEF780BD0399FF1F0499FF1F0299FF1FA3
:103DC00038B5224C237803B138BD01232370FFF7A7
:103DD000C9FE70BB00F040F940BB00F0D3F910BB46
:103DE00000F066FAE0B900232370EFF30583002B9F
:103DF000EAD1EFF3108172B6154B1868E0B1154C9B
:103E00002278CAB945691D6001232370C5B1AA6132
:103E100001B962B600254577836898472570D3E7D6
:103E200000F018F9DFE700F013F9D9E700F00EF918
:103E3000D3E7FFF755FBCDE70029C5D162B638BD02
:103E4000054B1D600029E5D1E3E700BF1199FF1F75
:103E50002499FF1F2899FF1F2099FF1F10B4EFF32B
:103E6000108272B6437F33B9017F012907D003293D
:103E70000FD00123437702B962B610BC7047124CD1
:103E80002168A1B1114943610B68836108605861E1
:103E9000EFE70F4C216881B10E4943610B688361E4
:103EA000086058610C4B4FF080511960E1E7074BF7
:103EB0004161816120601860DBE7064B41618161EF
:103EC00020601860EEE700BF2499FF1F2099FF1FB4
:103ED0001499FF1F1899FF1F04ED00E010B4047F30
:103EE0004160022CC26002D010BCFFF7B7BF8368EC
:103EF00010BC184770B5EFF3108272B60C4C2068F6
:103F000080B10C4E00254369236073B19D6102B9F5
:103F100062B6457783689847EFF3108272B62068DF
:103F20000028F0D102B962B670BD3360EFE700BF80
:103F30001499FF1F1899FF1FFFF7DCBF184A30B410
:103F40001468002C27D0036821688B420ED2CB1A4C
:103F500000218460C1602360E0601060022303756B
:103F600030BC704711688B42144608D3A2685B1AB4
:103F70000360002AF6D18260C460A060EEE7D268D8
:103F8000C2608460E060C568CB1A0222A86023602A
:103F9000027530BC70478460C4601060DEE700BF0B
:103FA0001C99FF1FF8B5224E34682CB32368002BF0
:103FB0003AD1204F1D4604E03468ECB12368002B51
:103FC00032D1A36803B1DD602069336003682575D1
:103FD0001B68BB4221D1037F4560022BC46020D007
:103FE000FFF73CFF6368002BE6D023602046FFF715
:103FF000A5FF3468002CE1D1EFF3108372B60E4AAE
:1040000000211068116003B962B628B18468FFF717
:1040100095FF20460028F9D1F8BD22460021984797
:10402000E0E783689847DDE7013B2360E4E700BFF2
:104030001C99FF1FDD3E00002C99FF1F024A1368E8
:1040400001331360FFF7AEBFCC97FF1F704700BF6F
:10405000704700BF704700BF054A064B10781B78B9
:10406000C0B2DBB2984238BF4030C01A704700BFC0
:104070003499FF1F3599FF1FF0B4384B1A7912F0AD
:10408000300F2CD072B6997D01F0FF0200293DD08F
:1040900062B6334F334938780D78334E1C46C0B280
:1040A000EDB2431C402BE17928BF0023AB4202F163
:1040B000FF32C9B21CBFF154184612F0FF02F0D112
:1040C0002A4B1B68C2B23A704BB1A84236BFC5F149
:1040D0004005401B40192728C4BF01221A701F4900
:1040E000CA78D2B2150616D452060DD51B4B1B79D1
:1040F0005B0609D51E4B1F491B6800220A7003B1DD
:104100001A70164B3C22DA70F0BC70474022D97905
:104110005A7462B6E3E70B791C06E5D5164B174EC9
:104120001C783378E4B2DBB29C420ED0144D01E02F
:10413000A3420AD00133402B28BF00230879E85C52
:10414000C0B2C871087D0728F2D9DBB203493370C9
:104150000B79180644BF7C23CB70C5E700A006404E
:104160003499FF1F3599FF1F7899FF1F3099FF1F62
:10417000BC99FF1FB899FF1FC099FF1FB999FF1F76
:104180003899FF1F054A064B10781B78C0B2DBB286
:10419000984238BF4030C01A704700BF349AFF1FA2
:1041A000C999FF1FF0B4384B1A7912F0300F2CD098
:1041B00072B6997D01F0FF0200293DD062B6334FFF
:1041C000334938780D78334E1C46C0B2EDB2431CEB
:1041D000402BE17928BF0023AB4202F1FF32C9B284
:1041E0001CBFF154184612F0FF02F0D12A4B1B6895
:1041F000C2B23A704BB1A84236BFC5F14005401B70
:1042000040192728C4BF01221A701F49CA78D2B2A8
:10421000150616D452060DD51B4B1B795B0609D526
:104220001E4B1F491B6800220A7003B11A70164BFF
:104230003C22DA70F0BC70474022D9795A7462B6D9
:10424000E3E70B791C06E5D5164B174E1C7833783F
:10425000E4B2DBB29C420ED0144D01E0A3420AD07E
:104260000133282B28BF00230879E85CC0B2C8714D
:10427000087D0728F2D9DBB2034933700B791806A1
:1042800044BF7C23CB70C5E700B00640349AFF1FC3
:10429000C999FF1FF499FF1FC499FF1F389AFF1F88
:1042A000C899FF1F3C9AFF1F359AFF1FCC99FF1F2B
:1042B000054A064B10781B78C0B2DBB2984238BF73
:1042C0004030C01A704700BF449AFF1F459AFF1F35
:1042D00030B42B4B1A7994061FD52A48DA79037823
:1042E000294901333F2B0978C8BF00238B42D2B242
:1042F00003D0264CD9B2E2540170254A116861B14D
:10430000244A1278D2B2934236BFC2F140029B1ABD
:104310009B18272BC4BF01230B70194AD378DBB23B
:10432000180611D45A060DD5154B1B795B0609D515
:10433000194B1A491B6800220A7003B11A70104BFE
:104340002C22DA7030BC704711790906EAD514497D
:1043500010480C780178C9B28C420DD04A1C272A2B
:1043600084BF00210A460F4D054C98BFD1B2AA5C0C
:10437000D2B2E2710170D5E76C21D170D2E700BFF3
:1043800000C00640449AFF1F459AFF1F709AFF1F06
:10439000409AFF1FB19AFF1FB49AFF1FB09AFF1FE8
:1043A000B89AFF1F489AFF1F70B584B072B6194BB8
:1043B000194D1A48702241260F2480211A702E7040
:1043C0001A460470197013781B06FCD5144B186834
:1043D00062B6144B144C984298BF00EB800001A9C0
:1043E00098BF40000A22FDF7FFFE01A920460023E6
:1043F00011F8012B01333AB10A2B20F8022FF7D123
:104400001623237004B070BD5B00DBB2237004B0D0
:1044100070BD00BF000002400700024006000240DD
:10442000080002407F9698008C8EFF1F81F00041AB
:1044300002E000BF83F0004330B54FEA41044FEA89
:10444000430594EA050F08BF90EA020F1FBF54EA24
:10445000000C55EA020C7FEA645C7FEA655C00F0C0
:10446000E2804FEA5454D4EB5555B8BF6D420CDD91
:104470002C4480EA020281EA030382EA000083EA14
:10448000010180EA020281EA0303362D88BF30BDB4
:1044900011F0004F4FEA01314FF4801C4CEA11310A
:1044A00002D0404261EB410113F0004F4FEA033369
:1044B0004CEA133302D0524263EB430394EA050FF4
:1044C00000F0A780A4F10104D5F1200E0DDB02FA63
:1044D0000EFC22FA05F2801841F1000103FA0EF2F7
:1044E000801843FA05F359410EE0A5F120050EF1BD
:1044F000200E012A03FA0EFC28BF4CF0020C43FAEE
:1045000005F3C01851EBE37101F0004507D54FF0FA
:10451000000EDCF1000C7EEB00006EEB0101B1F54A
:10452000801F1BD3B1F5001F0CD349085FEA300090
:104530004FEA3C0C04F101044FEA445212F5800F9B
:1045400080F09A80BCF1004F08BF5FEA500C50F138
:10455000000041EB045141EA050130BD5FEA4C0C1B
:10456000404141EB010111F4801FA4F10104E9D1A4
:1045700091F0000F04BF01460020B1FA81F308BF9B
:104580002033A3F10B03B3F120020CDA0C3208DD67
:1045900002F1140CC2F10C0201FA0CF021FA02F142
:1045A0000CE002F11402D8BFC2F1200C01FA02F1B2
:1045B00020FA0CFCDCBF41EA0C019040E41AA2BFD7
:1045C00001EB0451294330BD6FEA04041F3C1CDA9F
:1045D0000C340EDC04F11404C4F1200220FA04F0BF
:1045E00001FA02F340EA030021FA04F345EA030169
:1045F00030BDC4F10C04C4F1200220FA02F001FA2B
:1046000004F340EA0300294630BD21FA04F02946AC
:1046100030BD94F0000F83F4801306BF81F4801145
:104620000134013D4EE77FEA645C18BF7FEA655CB8
:1046300029D094EA050F08BF90EA020F05D054EA8A
:10464000000C04BF1946104630BD91EA030F1EBF8F
:104650000021002030BD5FEA545C05D14000494193
:1046600028BF41F0004130BD14F580043CBF01F586
:10467000801130BD01F0004545F0FE4141F470016C
:104680004FF0000030BD7FEA645C1ABF1946104647
:104690007FEA655C1CBF0B46024650EA013406BF48
:1046A00052EA033591EA030F41F4002130BD00BF07
:1046B00090F0000F04BF0021704730B54FF48064C4
:1046C00004F132044FF000054FF0000150E700BF45
:1046D00090F0000F04BF0021704730B54FF48064A4
:1046E00004F1320410F0004548BF40424FF0000191
:1046F0003EE700BF42004FEAE2014FEA31014FEAD4
:1047000002701FBF12F07F4393F07F4F81F0605122
:10471000704792F0000F14BF93F07F4F704730B591
:104720004FF4607401F0004521F0004120E700BF24
:1047300050EA010208BF704730B54FF000050AE0AB
:1047400050EA010208BF704730B511F0004502D5AC
:10475000404261EB41014FF4806404F132045FEAAE
:10476000915C3FF4DCAE4FF003025FEADC0C18BF53
:1047700003325FEADC0C18BF033202EBDC02C2F149
:10478000200300FA03FC20FA02F001FA03FE40EADB
:104790000E0021FA02F11444C1E600BF70B54FF0DB
:1047A000FF0C4CF4E06C1CEA11541DBF1CEA1355BD
:1047B00094EA0C0F95EA0C0F00F0DEF82C4481EA25
:1047C000030621EA4C5123EA4C5350EA013518BF45
:1047D00052EA033541F4801143F4801338D0A0FB32
:1047E00002CE4FF00005E1FB02E506F00042E0FBDF
:1047F00003E54FF00006E1FB03569CF0000F18BFE5
:104800004EF0010EA4F1FF04B6F5007F64F540748C
:1048100004D25FEA4E0E6D4146EB060642EAC6211F
:1048200041EA55514FEAC52040EA5E504FEACE2E8C
:10483000B4F1FD0C88BFBCF5E06F1ED8BEF1004F8F
:1048400008BF5FEA500E50F1000041EB045170BD0B
:1048500006F0004646EA010140EA020081EA03014F
:10486000B4EB5C04C2BFD4EB0C0541EA045170BD4B
:1048700041F480114FF0000E013C00F3AB8014F1C5
:10488000360FDEBF002001F0004170BDC4F100040E
:10489000203C35DA0C341BDC04F11404C4F120058F
:1048A00000FA05F320FA04F001FA05F240EA0200EA
:1048B00001F0004221F0004110EBD37021FA04F620
:1048C00042EB06015EEA430E08BF20EAD37070BDDA
:1048D000C4F10C04C4F1200500FA04F320FA05F039
:1048E00001FA04F240EA020001F0004110EBD3703B
:1048F00041F100015EEA430E08BF20EAD37070BDAB
:10490000C4F1200500FA05F24EEA020E20FA04F383
:1049100001FA05F243EA020321FA04F001F0004132
:1049200021FA04F220EA020000EBD3705EEA430EA3
:1049300008BF20EAD37070BD94F0000F0FD101F0D2
:104940000046400041EB010111F4801F08BF013C0B
:10495000F7D041EA060195F0000F18BF704703F049
:104960000046520043EB030313F4801F08BF013DD0
:10497000F7D043EA0603704794EA0C0F0CEA13558C
:1049800018BF95EA0C0F0CD050EA410618BF52EA46
:104990004306D1D181EA030101F000414FF000004C
:1049A00070BD50EA410606BF1046194652EA43065A
:1049B00019D094EA0C0F02D150EA013613D195EACE
:1049C0000C0F05D152EA03361CBF104619460AD116
:1049D00081EA030101F0004141F0FE4141F4700120
:1049E0004FF0000070BD41F0FE4141F4780170BD10
:1049F00070B54FF0FF0C4CF4E06C1CEA11541DBF75
:104A00001CEA135594EA0C0F95EA0C0F00F0A7F876
:104A1000A4EB050481EA030E52EA03354FEA0131A3
:104A200000F088804FEA03334FF0805545EA1313B6
:104A300043EA12634FEA022245EA111545EA10657E
:104A40004FEA00260EF000419D4208BF964244F115
:104A5000FD0404F5407402D25B084FEA3202B61A34
:104A600065EB03055B084FEA32024FF480104FF408
:104A7000002CB6EB020E75EB030E22BFB61A75467C
:104A800040EA0C005B084FEA3202B6EB020E75EB0F
:104A9000030E22BFB61A754640EA5C005B084FEA77
:104AA0003202B6EB020E75EB030E22BFB61A754644
:104AB00040EA9C005B084FEA3202B6EB020E75EB4F
:104AC000030E22BFB61A754640EADC0055EA060E10
:104AD00018D04FEA051545EA16754FEA06164FEA53
:104AE000C30343EA52734FEAC2025FEA1C1CC0D1FF
:104AF00011F4801F0BD141EA00014FF000004FF08C
:104B0000004CB6E711F4801F04BF01430020B4F14C
:104B1000FD0C88BFBCF5E06F3FF6AFAEB5EB030C04
:104B200004BFB6EB020C5FEA500C50F1000041EB01
:104B3000045170BD0EF0004E4EEA113114EB5C04CE
:104B4000C2BFD4EB0C0541EA045170BD41F48011A1
:104B50004FF0000E013C90E645EA060E8DE60CEAA9
:104B6000135594EA0C0F08BF95EA0C0F3FF43BAFC6
:104B700094EA0C0F0AD150EA01347FF434AF95EA7D
:104B80000C0F7FF425AF104619462CE795EA0C0F61
:104B900006D152EA03353FF4FDAE1046194622E72E
:104BA00050EA410618BF52EA43067FF4C5AE50EA08
:104BB00041047FF40DAF52EA43057FF4EBAE12E7F8
:104BC0004FF0FF3C06E000BF4FF0010C02E000BFD9
:104BD0004FF0010C4DF804CD4FEA410C7FEA6C5CBC
:104BE0004FEA430C18BF7FEA6C5C1BD001B050EA5F
:104BF000410C0CBF52EA430C91EA030F02BF90EA4A
:104C0000020F0020704710F1000F91EA030F58BF08
:104C1000994208BF90422CBFD8176FEAE37040F06A
:104C2000010070474FEA410C7FEA6C5C02D150EA08
:104C3000013C07D14FEA430C7FEA6C5CD6D152EAC3
:104C4000033CD3D05DF8040B704700BF8446104688
:104C500062468C461946634600E000BF01B5FFF787
:104C6000B7FF002848BF10F1000F01BD4DF808ED57
:104C7000FFF7F4FF0CBF012000205DF808FB00BF28
:104C80004DF808EDFFF7EAFF34BF012000205DF882
:104C900008FB00BF4DF808EDFFF7E0FF94BF0120CF
:104CA00000205DF808FB00BF4DF808EDFFF7CEFFD0
:104CB00094BF012000205DF808FB00BF4DF808ED0F
:104CC000FFF7C4FF34BF012000205DF808FB00BFE0
:104CD0004FEA410C7FEA6C5C02D150EA013C0AD1F8
:104CE0004FEA430C7FEA6C5C02D152EA033C02D1EA
:104CF0004FF0000070474FF0010070474A0011D29A
:104D000012F5001211D20DD56FF47873B3EB625225
:104D10000ED44FEAC12343F0004343EA505323FA31
:104D200002F070474FF00000704750EA013002D1A6
:104D30004FF0FF3070474FF00000704780F00040A8
:104D400002E000BF81F0004142001FBF5FEA410363
:104D500092EA030F7FEA226C7FEA236C6AD04FEA63
:104D60001262D2EB1363C1BFD218414048404140A8
:104D7000B8BF5B42192B88BF704710F0004F40F45A
:104D8000000020F07F4018BF404211F0004F41F476
:104D9000000121F07F4118BF494292EA030F3FD042
:104DA000A2F1010241FA03FC10EB0C00C3F1200355
:104DB00001FA03F100F0004302D5494260EB4000E4
:104DC000B0F5000F13D3B0F1807F06D340084FEA4F
:104DD000310102F10102FE2A51D2B1F1004F40EB44
:104DE000C25008BF20F0010040EA030070474900AC
:104DF00040EB000010F4000FA2F10102EDD1B0FA77
:104E000080FCACF1080CB2EB0C0200FA0CF0AABF6B
:104E100000EBC25052421843BCBFD0401843704709
:104E200092F0000F81F4000106BF80F4000001320F
:104E3000013BB5E74FEA41037FEA226C18BF7FEAE6
:104E4000236C21D092EA030F04D092F0000F08BF28
:104E50000846704790EA010F1CBF0020704712F00F
:104E60007F4F04D1400028BF40F00040704712F14E
:104E700000723CBF00F50000704700F0004343F0B3
:104E8000FE4040F4000070477FEA226216BF0846E9
:104E90007FEA23630146420206BF5FEA412390EAAC
:104EA000010F40F4800070474FF0000304E000BFA2
:104EB00010F0004348BF40425FEA000C08BF704753
:104EC00043F0964301464FF000001CE050EA010217
:104ED00008BF70474FF000030AE000BF50EA01022C
:104EE00008BF704711F0004302D5404261EB410119
:104EF0005FEA010C02BF84460146002043F0B6433E
:104F000008BFA3F18053A3F50003BCFA8CF2083A62
:104F1000A3EBC25310DB01FA02FC634400FA02FC6B
:104F2000C2F12002BCF1004F20FA02F243EB020072
:104F300008BF20F00100704702F1200201FA02FCD4
:104F4000C2F1200250EA4C0021FA02F243EB0200C7
:104F500008BF20EADC7070474FF0FF0C1CEAD0520B
:104F60001EBF1CEAD15392EA0C0F93EA0C0F6FD0CC
:104F70001A4480EA010C400218BF5FEA41211ED0AA
:104F80004FF0006343EA501043EA5111A0FB013196
:104F90000CF00040B1F5000F3EBF490041EAD3716B
:104FA0005B0040EA010062F17F02FD2A1DD8B3F1E7
:104FB000004F40EBC25008BF20F00100704790F056
:104FC000000F0CF0004C08BF49024CEA502040EAA8
:104FD00051207F3AC2BFD2F1FF0340EAC25070476E
:104FE00040F400004FF00003013A5DDC12F1190FAC
:104FF000DCBF00F000407047C2F10002410021FA1E
:1050000002F1C2F1200200FA02FC5FEA310040F135
:10501000000053EA4C0308BF20EADC70704792F0AE
:10502000000F00F0004C02BF400010F4000F013AE6
:10503000F9D040EA0C0093F0000F01F0004C02BFE1
:10504000490011F4000F013BF9D041EA0C018FE750
:105050000CEAD15392EA0C0F18BF93EA0C0F0AD056
:1050600030F0004C18BF31F0004CD8D180EA01007C
:1050700000F00040704790F0000F17BF90F0004F15
:10508000084691F0000F91F0004F14D092EA0C0FF7
:1050900001D142020FD193EA0C0F03D14B0218BF8A
:1050A000084608D180EA010000F0004040F0FE40D0
:1050B00040F40000704740F0FE4040F4400070476C
:1050C0004FF0FF0C1CEAD0521EBF1CEAD15392EAEB
:1050D0000C0F93EA0C0F69D0A2EB030280EA010CDB
:1050E00049024FEA402037D04FF0805343EA111174
:1050F00043EA10130CF000408B4238BF5B0042F1D2
:105100007D024FF4000C8B4224BF5B1A40EA0C0076
:10511000B3EB510F24BFA3EB510340EA5C00B3EBA8
:10512000910F24BFA3EB910340EA9C00B3EBD10F96
:1051300024BFA3EBD10340EADC001B0118BF5FEAE8
:105140001C1CE0D1FD2A3FF650AF8B4240EBC25011
:1051500008BF20F0010070470CF0004C4CEA5020D2
:105160007F32C2BFD2F1FF0340EAC250704740F421
:1051700000004FF00003013A37E792F0000F00F013
:10518000004C02BF400010F4000F013AF9D040EA91
:105190000C0093F0000F01F0004C02BF490011F425
:1051A000000F013BF9D041EA0C0195E70CEAD1531D
:1051B00092EA0C0F08D142027FF47DAF93EA0C0F04
:1051C0007FF470AF084676E793EA0C0F04D14B02E8
:1051D0003FF44CAF08466EE730F0004C18BF31F09A
:1051E000004CCAD130F000427FF45CAF31F0004394
:1051F0007FF43CAF5FE700BF4FEA4002B2F1FE4FE1
:105200000FD34FF09E03B3EB12620DD94FEA002388
:1052100043F0004310F0004F23FA02F018BF404261
:1052200070474FF00000704712F1610F01D1420248
:1052300005D110F0004008BF6FF0004070474FF0FC
:10524000000070470B460146184600F001B800BF49
:1052500013460A460146022000F00CBB014B1868B9
:10526000704700BFD092FF1F70B50F4E0F4D761BD9
:10527000B61018BF002405D0013455F8043B9847F8
:10528000A642F9D10A4E0B4D761B00F0DBFFB6109B
:1052900018BF002406D0013455F8043B9847A642B5
:1052A000F9D170BD70BD00BF5062000050620000B7
:1052B0005C62000050620000024B0146186800F07A
:1052C0000BB800BFD092FF1F024B0146186800F0D8
:1052D00095BB00BFD092FF1F2DE9F04F01F10B05E8
:1052E000162D83B0064640F29F8035F0070500F189
:1052F000BF80A94200F2BC8000F0A6FAB5F5FC7FA1
:10530000C0F09C826B0A00F0BA80042B00F283810B
:10531000A80900F1390E4FEA4E033830C44F07EBAD
:105320008303A3F108015C68A14207D1ACE0002A25
:1053300080F2AC80E468A14200F0A680636823F0AC
:1053400003035A1B0F2AF2DDB9493C6901F1080E2B
:10535000744500F0B381636823F003035A1B0F2ADE
:1053600000F39981002AC1F814E0C1F810E080F23E
:105370009E80B3F5007F80F06781DB0803F1010CAC
:1053800001229B1002FA03F34A6851F83C80C4F8EA
:10539000088001EBCC091A43A9F10803E3604A60D5
:1053A00041F83C40C8F80C40831001249C409442D2
:1053B00000F28A80144206D120F0030064001442F7
:1053C00000F10400FAD007EBC009CC468046DCF8B7
:1053D0000C108C4507D173E1002A80F28181C968E5
:1053E0008C4500F06D814B6823F003035A1B0F2A94
:1053F000F2DD0C46D1F80CC054F8088F4B1945F07B
:1054000001054D6042F00101C8F80CC03046CCF8EF
:1054100008807B613B61C3F80CE0C3F808E0596089
:105420009A5000F013FA1FE0102921D800F00CFA6E
:105430001025062302207E4F07EB8303A3F1080209
:105440005C68944200F045816368E168A56823F0D8
:105450000303234430465A68E96042F001028D603C
:105460005A6000F0F3F90834204603B0BDE8F08F2D
:1054700000240C232046336003B0BDE8F08F802366
:105480004FF0400E3F2049E770465DE72344E16856
:105490005A68A56842F00102E96030468D605A60A2
:1054A00000F0D4F90834204603B0BDE8F08F23445F
:1054B00030465A6842F001025A6000F0C7F90834D9
:1054C000204603B0BDE8F08FBC68636823F0030892
:1054D000A84504D3C5EB08030F2B00F38C80554B74
:1054E000DFF860911A68D9F8003001332A4404EBE0
:1054F000080A00F0608102F580520F3222F47F62C8
:1055000022F00F0211463046019200F0A1F9B0F1ED
:10551000FF3F8346019A00F05881824500F2FC80EB
:10552000454B1968DA451144196000F05381D9F8E8
:105530000000DFF810E101301BBFCAEB0B0A514439
:10554000CEF800B019601BF0070100F01781C1F11F
:105550000800C1F58051834408315A44C2F30B025C
:10556000C2EB010949463046019300F071F9431C32
:10557000019B00F03F81CBEB00024A4442F0010264
:105580001968C7F808B04944BC42CBF80420196038
:10559000DFF8A49016D0B8F10F0F40F2FD806268DA
:1055A000A8F10C0323F00703E01802F001024FF00A
:1055B000050E1A430F2B6260C0F804E0C0F808E043
:1055C00000F21C811D4BBC681A68914288BF1960AB
:1055D0001B4B1A689142626888BF196022F003026F
:1055E0009542A2EB050301D80F2B04DC304600F0F6
:1055F0002DF9002438E7621943F0010345F0010555
:1056000065603046BA60536000F020F908342046E7
:1056100003B0BDE8F08F142B71D9542B00F2A48095
:10562000280B00F16F0E4FEA4E036E3076E600BF96
:10563000D492FF1FC49AFF1FC89AFF1FC09AFF1F72
:10564000BC9AFF1FE096FF1F5A0A042A5ED9142A4B
:1056500000F2B38002F15C0149005B3207EB810C80
:1056600057F82110DFF8DC81ACF1080C8C4500F014
:1056700088804A6822F00302934202D289688C45EE
:10568000F7D1D1F80CC07A68C4F80CC0A160CCF88E
:105690000840CC6088E6631942F0010745F0010537
:1056A000656030464B610B61C3F80CE0C3F808E05D
:1056B0005F609A50083400F0C9F8D5E64A6873E68E
:1056C00008F1010818F0030F0CF1080C7FF47FAE0D
:1056D00030E0DC68A34208BF02303FF435AEB3E6E9
:1056E0000B440C465A68C96854F8085F42F001023E
:1056F0005A603046E9608D6000F0A8F8B4E603F126
:105700005C0E03F15B004FEA4E0307E69A0902F1D3
:10571000390149003832A1E7BC424A4B3FF400AF9F
:105720009C68626822F003025AE759F808399945E3
:1057300040F0828010F0030F00F1FF30F5D17B685C
:1057400023EA04037B6064009C423FF6BDAE002C5C
:105750003FF4BAAE1C4240467FF435AE64001C42B2
:1057600000F10400FAD02EE6B3F5AA7F18D8E80BB2
:1057700000F1780E4FEA4E037730CFE54FF48051B9
:10578000EBE60121D8F80430921001FA02F21A4334
:10579000C8F80420614677E70123CBF8043025E7F9
:1057A00040F25452934220D8A80C00F17D0E4FEAEB
:1057B0004E037C30B2E51032A4E6542A26D81A0BE8
:1057C00002F16F0149006E3248E7BC68626822F05E
:1057D000030205E7CAF30B0000287FF4A8AE424499
:1057E000BB6842F001025A60ECE6FE234FF07F0EE8
:1057F0007E2093E501224FF00009C1E604F1080183
:10580000304600F0FBF8D9F80010DBE6B2F5AA7FCD
:1058100005D8DA0B02F17801490077321EE740F231
:1058200054518A4205D89A0C02F17D0149007C321C
:1058300014E7FE217E2211E77B6884E7E808431C19
:105840005B00F8E5D492FF1F704700BF704700BFB0
:1058500038B5074C0023054608462360FCF7A6FC34
:10586000431C00D038BD2368002BFBD02B6038BD13
:10587000189BFF1F2DE9F047254C2568D5F84841B6
:105880000646884692469946C4B360681F2817DCCE
:10589000431C76B104EB80050122C5F888A0D4F83A
:1058A000881182401143022EC4F88811C5F808916E
:1058B0001ED00230636044F820800020BDE8F087ED
:1058C000144B03B34FF4C870FFF7F6FC0446D0B195
:1058D000D5F84831002780E88800C5F848413846A7
:1058E0000123C4F88871C4F88C71002EE1D0D1E78F
:1058F000D4F88C110A43C4F88C21DAE705F5A674B4
:10590000C5F84841C1E74FF0FF30BDE8F08700BF60
:1059100040620000B9520000024B13B1024800F08F
:1059200005B8704700000000395900000023014607
:105930001A461846FFF79EBF38B5074D074C2C1B7B
:10594000A41005D0013C55F8043D9847002CF9D12E
:10595000BDE8384000F082BC0000000000000000FC
:10596000F8B5234F0C460646FFF76EFFBB685D682F
:1059700025F00305291B01F6EF7121F47F6121F069
:105980000F01A1F58054B4F5805F07DB002130469C
:10599000FFF75EFFBB682B44984204D03046FFF708
:1059A00055FF0020F8BD61423046FFF751FF01303E
:1059B0000DD0104BBA6819682D1B45F00105304613
:1059C000091B55601960FFF741FF0120F8BD002158
:1059D0003046FFF73DFFBA68831A0F2BDEDD064C19
:1059E0000449246843F00103001B53600860D5E7B5
:1059F000D492FF1FC89AFF1FE096FF1F002945D0D1
:105A00002DE9F0410D468046FFF71EFF55F8047C56
:105A10006A4927F00103A5F10804E2188E6850686E
:105A2000B24220F0030062D0FE0750600BD455F85C
:105A3000087CE41B01F1080EA56875453B446FD056
:105A4000E768EF60BD6015186D68ED0742D543F05B
:105A500001026260E350B3F5007F18D2DB085A1CE4
:105A60004D6851F83270A76001209B1000FA03F3D3
:105A700001EBC2001D430838E0604D6041F8324040
:105A8000FC604046BDE8F041FFF7E0BE70475A0AAF
:105A9000042A53D89A0902F139077F0002F1380528
:105AA00001EB870051F827204449083890424DD037
:105AB000516821F003018B4202D292689042F7D1E3
:105AC000D068E060A2608460D4604046BDE8F041E8
:105AD000FFF7BCBE95683A4FBD4203443FD0D06843
