:1000000000180020C1000000C91A00008D1A00006D
:100010008D1A00008D1A00008D1A00008D1A000044
:100020008D1A00008D1A00008D1A0000C91A0000F8
:10003000C91A00008D1A000029310000F9310000B2
:10004000C91A0000C91A0000C91A0000C91A000024
:10005000C91A0000C91A0000C91A0000C91A000014
:10006000C91A0000C91A0000C91A0000C91A000004
:10007000353200000D330000E5330000C91A0000DE
:10008000C91A0000C91A0000C91A0000C91A0000E4
:10009000C91A0000C91A0000C91A0000C91A0000D4
:1000A000B9200000C91A0000C91A0000C91A0000CE
:1000B000C91A0000C91A0000C91A0000C91A0000B4
:1000C000F8B501F005FD0821474A484B1A60484A37
:1000D000484B1A60484A494B1A60494B1A780A4201
:1000E00002D01A780A431A702A22464B46481A70E0
:1000F00000234649464C1A188A4203D2E558043375
:100100001560F8E70021434B434A934201D202C3F2
:10011000FBE70023414A424958589446985004331B
:10012000C02BF9D100210326FF2580248A083D4BEE
:100130009200D2180B002F003340DB009F40106864
:100140000131B84307002000984003003B4313608F
:100150002029EBD16246344B1A608A22334B1A7045
:10016000334B663A5A707C321A709E3A9979114232
:10017000FCD0102299791142FCD10C209A792C499B
:100180000240082AFAD1053A0A713D324A71203AF2
:1001900099791142FCD0402299791142FCD025492D
:1001A000254A11602021224A117014399A790A4097
:1001B0000C2AFBD1214A224B1A60224A224B1A6098
:1001C0000022224B1A60224B07321A60214A224B2E
:1001D0001A6062B601F044FE05F07CF801F07EFC86
:1001E00001F04CFCFEE7C046300004F034800440CF
:1001F000823F0000388004400100000F3C80044032
:1002000002D0074000E00740300200200005002037
:10021000805C000000050020F408002000F9FF1FAA
:100220000000000000E400E008ED00E0005006409F
:10023000004006400000011044800440C000050555
:10024000048004407FBB000014E000E018E000E000
:1002500010E000E00000202020ED00E0FFFFFFFFA5
:10026000FFFFFFFFFFFFFFFFFFFFFFFFFFFFFFFF9E
:10027000FFFFFFFFFFFFFFFFFFFFFFFFFFFFFFFF8E
:10028000FFFFFFFFFFFFFFFFFFFFFFFFFFFFFFFF7E
:10029000FFFFFFFFFFFFFFFFFFFFFFFFFFFFFFFF6E
:1002A000FFFFFFFFFFFFFFFFFFFFFFFFFFFFFFFF5E
:1002B000FFFFFFFFFFFFFFFFFFFFFFFFFFFFFFFF4E
:1002C000FFFFFFFFFFFFFFFFFFFFFFFFFFFFFFFF3E
:1002D000FFFFFFFFFFFFFFFFFFFFFFFFFFFFFFFF2E
:1002E000FFFFFFFFFFFFFFFFFFFFFFFFFFFFFFFF1E
:1002F000FFFFFFFFFFFFFFFFFFFFFFFFFFFFFFFF0E
:10030000FFFFFFFFFFFFFFFFFFFFFFFFFFFFFFFFFD
:10031000FFFFFFFFFFFFFFFFFFFFFFFFFFFFFFFFED
:10032000FFFFFFFFFFFFFFFFFFFFFFFFFFFFFFFFDD
:10033000FFFFFFFFFFFFFFFFFFFFFFFFFFFFFFFFCD
:10034000FFFFFFFFFFFFFFFFFFFFFFFFFFFFFFFFBD
:10035000FFFFFFFFFFFFFFFFFFFFFFFFFFFFFFFFAD
:10036000FFFFFFFFFFFFFFFFFFFFFFFFFFFFFFFF9D
:10037000FFFFFFFFFFFFFFFFFFFFFFFFFFFFFFFF8D
:10038000FFFFFFFFFFFFFFFFFFFFFFFFFFFFFFFF7D
:10039000FFFFFFFFFFFFFFFFFFFFFFFFFFFFFFFF6D
:1003A000FFFFFFFFFFFFFFFFFFFFFFFFFFFFFFFF5D
:1003B000FFFFFFFFFFFFFFFFFFFFFFFFFFFFFFFF4D
:1003C000FFFFFFFFFFFFFFFFFFFFFFFFFFFFFFFF3D
:1003D000FFFFFFFFFFFFFFFFFFFFFFFFFFFFFFFF2D
:1003E000FFFFFFFFFFFFFFFFFFFFFFFFFFFFFFFF1D
:1003F000FFFFFFFFFFFFFFFFFFFFFFFFFFFFFFFF0D
:10040000FFFFFFFFFFFFFFFFFFFFFFFFDEF9FFFF23
:1004100010B5064C2378002B07D1054B002B02D0DA
:10042000044800E000BF0123237010BD0005002038
:1004300000000000805C0000084B10B5002B03D0CA
:100440000749084800E000BF07480368002B00D1B7
:1004500010BD064B002BFBD09847F9E700000000C9
:1004600004050020805C0000000500200000000062
:1004700040687047C368181E00D01868704740680D
:10048000704710B50400236820001B6898470028B7
:1004900004DD23682000DB699847F4E710BD83681A
:1004A000181E00D018687047C368181E00D018685E
:1004B000704710B50400236820001B689847002887
:1004C00004DD23682000DB699847F4E710BD8368EA
:1004D000181E00D01868704770B5040008200D0081
:1004E00001F018FB00234360A3680560002B02D0D5
:1004F000E368586000E0A0606368E0600133636017
:1005000000230120237670BD70B5040008200D0083
:1005100001F000FB00234360A3680560002B02D0BC
:10052000E368586000E0A0606368E06001336360E6
:1005300000230120237670BD70B504000D006168B2
:10054000002905D02000A847002801DC6468F6E7F0
:10055000200070BDF0B5436885B007000191012B04
:1005600048DD3B0008331E0002933568002DF8D0AB
:1005700001992800FFF7E0FF44680090002C05D1A6
:10058000029B9E42EDD1F8603C7633E00199200059
:10059000FFF7D2FF4368009A039300235360436040
:1005A00021002800019B9847002808DC35606B6813
:1005B0002E1D002B0AD022001D001400F0E734602D
:1005C0006268261D002A0BD02B00F5E76C6063687B
:1005D000002B01D01C00FAE7039B261D6360C4E7D3
:1005E00065606B68002B01D01D00FAE7039B2E1D90
:1005F0006B60BAE705B0F0BD70B504000D0061682E
:10060000002905D02000A847002801DC6468F6E72F
:10061000200070BDF0B5436885B007000191012B43
:1006200048DD3B0008331E0002933568002DF8D0EA
:1006300001992800FFF7E0FF44680090002C05D1E5
:10064000029B9E42EDD1F8603C7633E00199200098
:10065000FFF7D2FF4368009A03930023536043607F
:1006600021002800019B9847002808DC35606B6852
:100670002E1D002B0AD022001D001400F0E734606C
:100680006268261D002A0BD02B00F5E76C606368BA
:10069000002B01D01C00FAE7039B261D6360C4E712
:1006A00065606B68002B01D01D00FAE7039B2E1DCF
:1006B0006B60BAE705B0F0BD70B543680400002078
:1006C000834213DD012B0DD0A06808214668056820
:1006D00001F02CFA6368A660013B636000232800E8
:1006E000237603E0236820009B69984770BD70B5AE
:1006F000436804000020834213DD012B0DD0A06865
:1007000008214668056801F011FA6368A660013B9C
:10071000636000232800237603E0236820009B69A0
:10072000984770BD436870B504000D00002B03D1DD
:1007300003689B6898470CE0082001F0EBF9A36878
:10074000056043606368A06001336360002301209B
:10075000237670BD436870B504000D00002B03D1F3
:1007600003689B6898470CE0082001F0D3F9A36860
:10077000056043606368A06001336360002301206B
:10078000237670BDF8B504001B4D2700A561002538
:10079000303725626562E561A562E5623D70174FFD
:1007A00006A86763270040C834370078E5632564EE
:1007B000A5636564A5643D766170A2706360207076
:1007C000A660480065616565A56501F0A7F920652B
:1007D0006078400001F0A2F9E0606078400001F02C
:1007E0009DF9A378206160785843C00001F096F924
:1007F00020662000F8BDC046F454000030550000CB
:1008000010B50400006D002801D001F08BF92069BB
:10081000002801D001F086F9E068002801D001F03D
:1008200081F9206E002801D001F07CF90B4B636345
:10083000E06B002805D043680821E36301F076F9F6
:10084000F6E7074BA361206A002805D0436808211A
:10085000236201F06BF9F6E7200010BD305500006F
:10086000F4540000F8B503780400022B1ED10025D3
:10087000A378AB4201D800250EE0A3680221585DA1
:10088000013501F0BFF9EDB2F2E763680021585D70
:1008900001F0B8F90135EDB26378AB42F5D800222A
:1008A00001201427404216007F421CE0012BF6D1A4
:1008B00000256378AB4201D8002507E06368022178
:1008C000585D013501F09EF9EDB2F2E7A378AB4235
:1008D000E5D9A3680021585D013501F093F9EDB227
:1008E000F4E70132D2B26378934218D9216D5300F4
:1008F000C852E168C8522169C8520021A3789942C0
:10090000EFD25343256E5B18DB00EB185F60A378D2
:1009100053435B18DB0001315E55C9B2EEE7F8BD09
:1009200010B58378046D4B434900095B9B18114156
:100930000A009BB2016EDB00C818D20704D44268DB
:10094000132A07DC013204E042681400133401DB8F
:10095000013A4260CB181A780020032A2AD81000E6
:100960005A6802F0EDFD0208131B0020113221DB52
:10097000586001301DE011000020143104D0142A09
:1009800018D1123A1A7015E018700FE00020112AE1
:1009900010DC032258601A7001300BE01100143192
:1009A00006D00020142A05D1123A1A70012001E065
:1009B0000020187010BD70B505000C004368585C2D
:1009C000012101F01FF96B680021185D01F0E8F8C2
:1009D00070BD10B54368585C002101F013F910BDDB
:1009E00070B505000C008368585C012101F00AF91C
:1009F000AB680021185D01F0D3F870BD10B58368B5
:100A0000585C002101F0FEF810BDC36849005B5A34
:100A100030B51341012405000020234204D12B6985
:100A200020005B5A1341984330BD002310B5047E6B
:100A300082689C4205D043698B4201DC026900E078
:100A400000238B4204DA002A09D052680133F8E708
:100A500000248B4204D1012143610176026114001C
:100A6000200010BD10B5FFF7E0FF002800D000689F
:100A700010BDF8B50026416804003000B1421BDD0E
:100A8000267601290FD002392000FFF7CEFF07009C
:100A900040680821056801F049F863687E60013B01
:100AA000E760636007E0A0680821056801F03EF890
:100AB000A660E66066602800F8BD002310B514004B
:100AC000994206DB4268914203DAFFF7AEFF012349
:100AD0000460180010BDF8B5436804000E0017004C
:100AE0008B4202DC03689B6803E0002905D10368A0
:100AF000DB6839002000984714E0082001F00AF86C
:100B00000023050003604360711E2000FFF78DFF86
:100B100043682F606B606368456001336360002346
:100B200001202376F8BD70B504000020814221DB4E
:100B3000636899421EDA814202D12368DB6904E0CE
:100B4000013B994204D123689B692000984711E03A
:100B500001392000FFF769FF436808215A681D68C2
:100B60004260180000F0E2FF63682800013B636008
:100B70000023237670BDF0B5836D85B0436503789F
:100B80000400022B28D100256378AB4252D90026FD
:100B900029002000FFF70FFF6B000093A378B342FA
:100BA00013D9A3680127985D01F01AF8009A236D04
:100BB000B7409B181A88002802D1BA431A8001E076
:100BC00017431F800136F6B2E8E7290020000135FF
:100BD000FFF7FFFEEDB2D7E7012B2BD100250193E4
:100BE000A378AB4226D929002000FFF7F9FE019B2C
:100BF0000026AB40DF439BB23FB200936378B34221
:100C000011D96368985D00F0EBFF226D7300D31873
:100C10001A88002801D13A4001E000990A430136C0
:100C20001A80F6B2EAE7290020000135FFF7E6FE58
:100C3000EDB2D5E701F0D6F8636DA065C01A60612A
:100C4000A36B002B01DC002307E020003430FFF70A
:100C500033FD022100F06AFFF2E762789A4207D979
:100C6000E1685A00895A206901338152DBB2F4E706
:100C70000022230017005C331A706378BB4201D84E
:100C80000025A5E000257B000393A378AB4200D8A4
:100C900088E02A0039002000FFF742FE002800D13A
:100CA0007DE00123AB4002936B461A89A378216E45
:100CB0007B435B19DB005B5C013B012B44D82300C9
:100CC0005C3301931B78019A01331370082000F004
:100CD00021FF00234360230018330770457006008E
:100CE00018000093FFF7C6FB019B1B78012B1FD94F
:100CF000019A013B13707368426893424FD12200FE
:100D000001215C321378013B13700378E2685B00C9
:100D1000D3184278009891401A880A431A80FFF746
:100D2000A8FE082100F002FF0098FFF7A3FBE2E70E
:100D3000E368039A02999B181A8800988A431A80DC
:100D40003100FFF7C9FB2AE00026E36803995B182E
:100D500019880A431A80E3699E4216DA2300183381
:100D6000180031000093FFF77DFE0378BB4209D1E4
:100D70004378AB4206D131000098FFF7D4FE08213A
:100D800000F0D4FE0136F6B2E5E7022000F0C2FE24
:100D900001000770457020003430FFF7B5FB0135C6
:100DA000EDB272E77B1CDFB267E720002900183044
:100DB000FFF758FE0600427801782000FFF725FE75
:100DC000002803D0736862699B1873600135EDB227
:100DD000E369AB42E9DC00226078D3B2834209D2F6
:100DE000E16825695300C95AEB5A01329942F4D09F
:100DF000012000E0002005B0F0BD002310B5047E06
:100E000082689C4205D043698B4201DC026900E0A4
:100E100000238B4204DA002A09D052680133F8E734
:100E200000248B4204D10121436101760261140048
:100E3000200010BD10B5FFF7E0FF002800D00068CB
:100E400010BDF8B50026416804003000B1421BDD3A
:100E5000267601290FD002392000FFF7CEFF0700C8
:100E600040680821056800F061FE63687E60013B10
:100E7000E760636007E0A0680821056800F056FE9F
:100E8000A660E66066602800F8BD002310B5140077
:100E9000994206DB4268914203DAFFF7AEFF012375
:100EA0000460180010BDF8B5436804000E00170078
:100EB0008B4202DC03689B6803E0002905D10368CC
:100EC000DB6839002000984714E0082000F022FE7B
:100ED0000023050003604360711E2000FFF78DFFB3
:100EE00043682F606B606368456001336360002373
:100EF00001202376F8BD70B504000020814221DB7B
:100F0000636899421EDA814202D12368DB6904E0FA
:100F1000013B994204D123689B692000984711E066
:100F200001392000FFF769FF436808215A681D68EE
:100F30004260180000F0FAFD63682800013B63601E
:100F40000023237670BDFFFF002310B5074C1A0065
:100F500020701900180001F08DFE0020030002002F
:100F60000100207001F086FE10BDC0461007002071
:100F700070B5040008000D0004F0AEFA236802000A
:100F800029005B682000984770BDFFFF10B5012461
:100F9000104A137C234212D1990712D45B0712D452
:100FA000D07B002811D02323FF2806D05843FF21EF
:100FB00002F064FB83B2002809D0DCB207E008230A
:100FC000FBE71123F9E72323F7E70523F5E72000E3
:100FD00010BDC0461C05002010B501240F4A137C2B
:100FE000234216D1990710D45B0710D4D07B002878
:100FF0000FD00723FF2806D05843FF2102F03EFB05
:1010000083B2002807D0DCB205E00323FBE7072307
:10101000F9E72300F7E7200010BDC0461C050020BB
:1010200010B5034B4000C15A172000F021FE10BD3F
:10103000DC55000010B5102000F0A4FD084B186826
:10104000FFF7EEFF0748FFF70DFC00222021064BBB
:10105000D15401323F2AFBD100223F331A7010BD18
:101060003402002038050020A005002010B5054CF2
:101070003F2120783E3002F0E7FB2022024B217016
:101080005A5410BD34050020A005002010B5054CB1
:10109000054A23783F21D054581C02F0D5FB21701B
:1010A00010BDC04634050020A0050020F0B5002585
:1010B000BD4EBE4C8BB03000E57125726572A572D5
:1010C000E572FFF758FD370001260390FB699D424A
:1010D0002BDA380029001830FFF7C4FC0290427860
:1010E00001783800FFF791FC00281BD00A21029BF1
:1010F000029A1B7852784B43AD49CB189B5C052B69
:1011000001D166720EE0062B01D1A6720AE0072B10
:1011100001D1E67206E00E2B01D1E67102E0102B40
:1011200000D126720135EDB2D0E7039B002B00D130
:10113000D1E000236371E379002B03D001236371B5
:10114000002511E0237A002B02D1A379002BF7D0E0
:101150000223F4E718302900FFF784FC42680300FB
:10116000002A08D00135EDB28F48C36906009D42C0
:10117000F0DB00259EE0A179002923D10A26027820
:10118000407872438A4EB218125C0E2A07D1227838
:10119000002A01D021700BE00122227008E0102A01
:1011A00006D16278002A01D0617001E001226270EC
:1011B0002278002A01D0012203E06278002A01D0BF
:1011C000022262710A211A7860790292784A5B7869
:1011D0009446029A51433C2242438A186244D65CA8
:1011E000002E01D16144CE5C022813D13300203B94
:1011F0005E2B03D8300001F0BFFC1CE0152E01D19E
:10120000012004E0162E02D0172E0CD10420FFF787
:101210009BFE10E00A21029A4A43D318654A5B00FC
:10122000985A01F0A7FB0E2E05D16378002B0BD046
:101230000023637008E02378002B02D00023237082
:1012400002E0102EF1D104E0082E02D1FFF70EFFCC
:1012500088E73300203B5E2B03D83000FFF716FFF2
:1012600080E7182E00D07DE70122A3795340A371B7
:1012700078E732004C3211780022F36B91421DD195
:10128000954222DC00D049E13A0001214C32117034
:10129000BD647B64002B00D140E10A211A6801354E
:1012A000137852784B439B18424A5B00985A01F0DE
:1012B000E7FBEDB2B36B9D42DBDB0CE0B26C954219
:1012C00001DB736CDCE70022DAE7002B00D125E1BB
:1012D0005B680132D4E7344BDA69002A20DD5B6AAF
:1012E000002B00D11DE11D68334B6A689A4217D963
:1012F0000A22297863795143323253432C4A687861
:10130000CB18D318185C0300203B5E2B02D8FFF7E4
:10131000BDFE03E0082801D1FFF7A8FE274B6B6054
:10132000002323736373A373254B62691B680893BF
:10133000089BE17B9B1A0A22002900D15A329A426B
:1013400000D3F0E0002637003500340006960396FF
:101350000296059604961448C369B34259DD3100DC
:101360001830FFF77FFB114A0100537900789C4643
:101370004B78614607930A23584332334B43C318D3
:101380000B480799C3185B5C152B02D1143B1373F0
:101390003CE0162B02D1153B537337E0172B11D1CC
:1013A000163B937332E0C046380500201C05002030
:1013B000DC57000064550000E0930400A0860100A3
:1013C000E4050020112B0FD0122B0FD0132B0FD0C0
:1013D000142B10D01C2B11D0192B12D01D2B13D075
:1013E0001A2B13D1012711E001240FE001250DE094
:1013F000012304930AE00123059307E001230293EC
:1014000004E00123039301E0012306930136F6B2C1
:10141000A1E7464E002C12D1002D10D1049B002BC9
:101420000DD1059B002B0AD1029B002B07D1039BFA
:10143000002B04D1069B002B01D1002F5ED0F37B43
:10144000FF2B01D00133F3730023B27B717B307B20
:10145000009301F067FC002C04D0FFF797FD444295
:1014600064B205E0059B002B02D0FFF78FFD44B26C
:10147000002D04D0FFF78AFD45426DB205E0049BC4
:10148000002B18D0FFF782FD45B2002C13D0002DA1
:1014900011D0200002F08EFB254902F055FA02F02F
:1014A00067FB44B2280002F085FB214902F04CFAA8
:1014B00002F05EFB45B2039B002B04D0FFF78CFDCE
:1014C000464276B206E0069B039E002B02D0FFF751
:1014D00083FD46B2029B002B04D0FFF77DFD434203
:1014E0005BB205E0029B002F02D0FFF775FD43B20F
:1014F00032002900200001F0BDFB08E000973B000E
:101500003A003900380001F00DFCF7733774094BCD
:101510001B680993099A054B5A6104E000231B7864
:1015200000E05B68FFDE0BB0F0BDC0461C0500208C
:101530003333333FE4050020F0B5354E354D336885
:1015400085B0029334492B68029A5B18934223D2E8
:10155000162000F025FA0700304C31492000FFF733
:1015600007FD380002F026FBEA21890502F0ECF9BC
:101570002C4902F0E9F903F03DFE0B0004210200C2
:101580000091200000F0AEF827492000FFF7F0FCA2
:1015900033680393039B2B60FFF788FD234D2B7A61
:1015A000002B32D000240A263C272148C369A342DD
:1015B0002BDD18302100FFF755FA4368002B21D1AD
:1015C00002786B7972437B4341781A48D318C31869
:1015D0005B5C002B01D18218535C2E2B06D1164B7D
:1015E0001A680532FF2A09DDFF2207E02C2B09D1FA
:1015F000114B1A68053A042A00DC05221A601868A3
:10160000FFF70EFD0134E4B2CFE705B0F0BDC046F0
:10161000E40500209C050020B80B000044020020D7
:10162000B158000033335340B75800001C05002068
:1016300038050020DC570000340200201FB50123CC
:101640000A4C01930A4B0A2200930621094B200001
:10165000FFF798F8084A0949200003F01FFE084BDD
:101660001B680393039A074B1A601FBD38050020BF
:10167000BF580000B95800003002002001080000E7
:10168000E40500209C050020F0B50D000F2185B079
:101690009446134A6944ACB22F0C57430134544367
:1016A000BBB2260C1C19A4193B0C240CDB19E31843
:1016B0000A245B085C432D1B303501390D701D1E5B
:1016C000E9D16346002B02D02D2301390B70CA43A8
:1016D00004ABD21803685B68984705B0F0BDC046FC
:1016E00033330000F0B51C0089B00EAB1B780190BD
:1016F0000293210023001000150003F0ABFC4B49BE
:10170000002814D10122660076085242484B280076
:10171000310003F09FFC00280ED10122444B5242BD
:101720002800310002F0B6F8002805D1414901989F
:10173000FFF71EFC040076E0E0223F4B1206280073
:10174000210002F0B1F8002801D03C49EFE7E02287
:101750003B4B12062800210002F092F80028F4D139
:10176000002200232800210002F08AF8071E03D07F
:10177000802301271B06E418002600203149029B24
:101780009E4207D0A022304B120602F095FE731C39
:10179000DEB2F4E702000B002800210002F052FA4A
:1017A0000290039102F0B2F83A000100050001989E
:1017B000FFF76AFF0400002E35D0280003F0E2FC9A
:1017C00002000B000298039903F0F0F82E2304AAFC
:1017D0001370321C0F2E00D90F220025D3B20293B2
:1017E00000221A4B02F068FE0F00060002F08EF88D
:1017F00004AAC0B2AB18020030325A7003F080FC69
:101800000B0002003900300003F0D0F8029B0135D4
:10181000AB42E5D11A00019B01321B68D2B25B6872
:1018200004A901989847200009B0F0BDC9580000EC
:10183000FFFFEF7FD1580000FFFFEF41CD580000C0
:10184000FFFFEFC10000E03F9999B93F000024403D
:101850008023F0B51D4A10681840FCD172B61C4CAC
:101860002378002B30D01B4B1F681B4B1A681B4B77
:10187000BA181E681A4B92191D681A4B521919682A
:10188000194B52181B68194DD21892B25208184BB6
:101890002A4392B21A60174B17491B68174A9C4695
:1018A000174B1B6812680F68164963440E68164987
:1018B0009B180968DB199B195A1893B25B082B43D4
:1018C000124A9BB21360207062B6F0BD24B0034090
:1018D000E105002038B003403CB0034040B0034075
:1018E00044B0034048B003404CB003400080FFFFC9
:1018F0002CB0034058B0034064B0034060B00340D4
:101900005CB0034068B003406CB0034030B00340AB
:101910001B4B1C4A19781C4B082901D1002102E0FD
:101920000A2903D12E311160132206E00C2901D1BE
:10193000283100E03C21116012221A60134B1A7802
:10194000134B002A01D0002200E001221A60114B43
:101950001A78114B012A01D880220CE0042A01D800
:10196000842208E0082A01D8852204E0102A01D840
:10197000862200E087221A600122084B1A70704705
:101980003802002008B003400CB00340E3050020FB
:1019900020B003403902002024B00340E1050020BC
:1019A000F8B503000020272B33D81A4AD45CFF2C4B
:1019B0002FD0194B1B78834201D0FFF749FF72B635
:1019C00010274022154B144205D01A68BA431A60FA
:1019D0003F231C4002E01A683A431A600123104E6C
:1019E000104D34602B7062B672B680223368134299
:1019F00008D00D4B186800232B7062B60B4B1B7878
:101A0000184106E02B78002BDBD062B601F010FB0A
:101A1000EAE7F8BDD5580000E10500200CB003400E
:101A200000B00340E205002010B00340E0050020B4
:101A300080210D4A090613680B4313600B4B1A787B
:101A40000B4B002A01D1D03200E090221A70094BD2
:101A5000984201DD180002E0C343DB171840064B33
:101A600000B218807047C0463C800440E305002067
:101A700021F00340FF0F000000F0034010B5FFF716
:101A8000D9FAFFF759FD01F0D3FAFAE770B58025CE
:101A90008026ED02F6000B4C23682B4201D000F0AB
:101AA0000BFB2368334201D001F0C4FB23681B0504
:101AB00001D501F02BFC2368DB04ECD501F092FC8E
:101AC000E9E7C0463480044010B5FFF7DFFFFFFFB1
:101AD0000022014B1A607047008104407047FFFFED
:101AE0000A49030010B50868002B0DD06A46084C5F
:101AF000C3181219934206D303F0E6FB0C230360CC
:101B00000120404200E00B6010BDC0463C020020B6
:101B100000FEFFFF10B503F003FC10BD10B503F08D
:101B2000FFFB10BD10B503F005FC10BD10B503F0B0
:101B300001FC10BDF8B506000D00170000243900A7
:101B4000300001F097FD0B003733DBB2092901D8D3
:101B50003031CBB230002B55390001F005FD061EA7
:101B600001D00134EBE72B1958702B005A1B94421B
:101B700006DD1A78295D19702A550133013CF5E715
:101B80002800F8BD0123002803D00300102800D945
:101B90001023024A107813707047C046400200209C
:101BA00010B51A2818D80C2358430C4A835810181B
:101BB0001C7D027A224205D0002901D01A710BE067
:101BC0001A7209E043681A68002902D003210A4307
:101BD00001E002218A431A6010BDC046005900008E
:101BE00000231A280AD80C335843054A8358101882
:101BF000007A1B7C0340581E8341DBB218007047FB
:101C000000590000F0B51A282FD80C2217004743BE
:101C1000164CE5196B682600012901D0042911D161
:101C2000504334583018257D027A20202A432275EB
:101C3000A22252001A601A68042901D1024313E05B
:101C4000824311E038592C7A027DA243027580222A
:101C5000002908D0022902D10422FF3204E0002228
:101C6000032901D1812252001A60F0BD0059000001
:101C700070B5434B04001A280ED11B780B2B03D8E8
:101C80000C22D31A994003E00C2B01D00C3B1941D4
:101C90000800FFF7CDFE72E001251A782B00934073
:101CA000002901DC002102E08B4205D82900200038
:101CB000FFF776FF29005FE02300103B0338012B7C
:101CC00001D8304B05E0C3B2012B01D82E4B00E008
:101CD0002E4B1B6801334B43D340142843D801F0EB
:101CE0002FFC353B421F4242151A424242424229D2
:101CF0002F424224420B1000254A1360254A264BEE
:101D00002FE0264A1360234A254B2AE0254A136018
:101D1000204A254B25E0254A13601E4A244B20E02B
:101D2000244A13601B4A244B1BE0244A1360194ABF
:101D3000234B16E0234A1360D122234B920010E07C
:101D4000224A1360D122224B92000AE0214A1360FA
:101D5000D122214B920004E0204A1360D122204B73
:101D600092001A600BE001237F2900DC0023D9B226
:101D70002000FFF715FF01212000FFF743FF70BD92
:101D8000400200200890034008A003400880034060
:101D9000108003404404000004B004401880034055
:101DA00008B00440208003400CB004402880034069
:101DB00010B004403080034010C00440388003401D
:101DC00014C004401090034000A004401890034049
:101DD00004A0044010A003400490044018A0034055
:101DE0000890044072B60C4B1A680C4B18680C4BE8
:101DF0001B6862B65B0104D5322393429B415B4270
:101E0000C018084B9A1A084B5A43FA239B005843B0
:101E1000920D10187047C04618E000E0E40500205D
:101E200004ED00E07FBB00005555010070B50400D3
:101E3000FFF7D8FF0500002C0FD0FFF7D3FF074BAB
:101E4000401B984206D9013C002C06D0FA239B0087
:101E5000ED18F2E701F0ECF8EFE770BDE7030000E2
:101E600080221E4BD20510B51A6080220020120677
:101E70001A601B4B1B4918601B4B1C4A1960282316
:101E800013601B4A1B4C13601B4A13601B4A1360F0
:101E90001B4A13601B4A1360092222601A4C2060FF
:101EA0001A4C21601A4C23601A4C23601A4C226091
:101EB0001A4C20601A4801601A490B601A490B60DD
:101EC0001A4B1A60FFF724FD1920FFF7AFFF00F04F
:101ED00005FC1420FF30FFF7A9FF10BD00E100E072
:101EE00004800340FFBF0000088003400C800340D3
:101EF00014800340008003401C8003402480034082
:101F00002C80034034800340049003400890034039
:101F10000C900340149003400090034004A0034041
:101F200008A003400CA0034014A0034000A00340FD
:101F30000223F0B50A4A0B4E1478C8272343DB006E
:101F4000F518686008480578002D00D1403F090465
:101F50000F43F75001235D405C4005701470F0BDE5
:101F60006C06002000F8FF1FFC060020431E10B581
:101F70000020062B0ED872B6074A99008858002810
:101F800007D044685B008C50044904885A5A121BDD
:101F90005A5262B610BDC04650060020C808002044
:101FA000431E0020062B09D872B6054A9B009B5899
:101FB000002B02D001305B68FAE762B67047C0467A
:101FC000B0060020F8B572B60123174A08259446DA
:101FD0001E00164964465A1EA25C2A421AD05F01AE
:101FE0007C589A00002C05D1CB1908305860104B52
:101FF000CB5109E03243D2005458002C0AD18B183F
:10200000083058600B4B8B500B4A1378013B137010
:1020100062B608E00133082BDCD162B60022064B21
:102020001A7000F0FFFDF8BDCC5A000000F8FF1F49
:1020300088004000C8004000F2060020421E10B593
:10204000062A30D8022380001843174BC0001B1803
:1020500072B6164CA05C03280BD801F071FA160476
:102060000207052012E0083302200FE008330420A5
:102070000CE00F48920014580E4B002C01D1115067
:1020800001E09858416099500CE00320A0540A00E8
:1020900008325A60C822180700D4403A0988090457
:1020A0000A431A6062B610BD00F8FF1F0806002040
:1020B000B0060020CC060020F7B5BB4B1C781D00F5
:1020C0000423E4B21C421DD0B84B1B78002B16D061
:1020D000B74A1378DBB2002B05D0013BDBB213709B
:1020E000002B00D100BEB34A1378DBB2002B06D020
:1020F000013BDBB21370002B01D100F075FF04220D
:10210000A94B1A700822224000D177E2AA4BAB4FAC
:102110001B78DBB29C08E4001D093C19002D00D09F
:10212000FDE1236865689806000F01380C2800D986
:10213000F1E101F00FFAA401A401F001F001F001B6
:10214000F001F001F001CD01F001F001F0010D000E
:102150006B689B4E9B49736000230B6001219A487A
:102160002A682060994C32602170994C92B23B6190
:10217000BB610190A2421BD8D020C000824200D394
:10218000F0E081204000824200D1CDE006D8802AD4
:1021900000D1B2E0822A00D1B4E000E18D4B9A4236
:1021A00000D1D0E0FF33FF339A4200D13EE1F6E0A8
:1021B0008948824200D139E111D890231B019A420B
:1021C0001AD0864B9A4200D156E1A13B9A4200D0E8
:1021D000E5E0764B824C1B7823700B0028E18149A7
:1021E0008A4200D1D3E0804B9A4200D11EE17F4B5E
:1021F0009A4200D0D3E03FE13C00B2786B4B7D1CAB
:102200001A702034FF3580222368134203D060689F
:10221000083800F007FD0834AC42F4D10024250052
:10222000734BE058002805D04368009300F0FAFC97
:102230000098F7E76E4B18516E4BE0506E4BE0582C
:10224000002805D04368009300F0ECFC0098F7E705
:10225000694B6A4A18516A4BE0506B00D052694B87
:10226000E85C0238032807D801F06AF90204020486
:10227000002200E001225A5501350434072DCFD148
:1022800000230124604D2B70604B6149621EE318EE
:102290008A5C9B001A7008231A4220D000F0A4FC2C
:1022A0006301002805D0FA1808305060594AFA50E6
:1022B00003E0F8502B7801332B7000F095FC0122DD
:1022C000A3001343DB00002805D0FA180830506043
:1022D000019AFA5003E0F8502B789B182B700221DA
:1022E0000023A2001143C9007B5003210A438A4006
:1022F0000134BB50082CC7D199E0394C237063706E
:10230000022395E07F22B0880240072A47D8344C48
:10231000920023706370404BD218022312781A4245
:1023200000D185E0217083E07F23B2881A40072A1C
:1023300035D87388002B32D10220374992005218C9
:102340001178814329E07F23B2881A40072A26D8D2
:102350007388002B23D102202F4992005218117844
:1023600001431AE07288B1882C4B5C68002C16D0AF
:102370001888904209D15888884206D1120A032A47
:1023800001D1237854E01B8952E00C33EDE7244A55
:102390001168244A1160B178234A117047E00F2276
:1023A0001D4B1A7068E0C04680200740FB060020E5
:1023B0006D060020120700209020074000F8FF1F44
:1023C000E8060020E8050020C8004000FC060020C8
:1023D0008106000002030000210A0000210900001C
:1023E000F30600202122000021230000212000000C
:1023F00050060020EC050020B0060020C808002090
:10240000CC06002008060020F206002030C801108B
:10241000CC5A000088004000C0200740D45A000079
:10242000E4050020EC0800202007002000231C0009
:10243000F5889D4200D91D002E00402D00D9402670
:1024400020003100FFF774FDA419AD1B03D12F004C
:10245000402E04D010E04027AF4200D92F002000CA
:102460003900FFF765FDE419ED1B01D1402F03D1C1
:102470007E4B1C607E4B1D8001227E4B4AE07E4ECF
:102480007E4B32889A4211D100237D4AE95CD154B7
:102490000133072BFAD113680735862B02D10F229F
:1024A000784B1A7000210800FFF742FD764B326826
:1024B0009A420AD1754B72689A4206D100212A7855
:1024C000734B08001A70FFF733FD724B236022E054
:1024D000664F3E68002E13D0654B1C882500402CAB
:1024E00000D9402529003000FFF722FD641B604B16
:1024F000A4B21C80002C01D1402D00D174193C6085
:10250000A0225D4BD2001988914204D100225A705A
:102510009A78614B1A700122564B1A706AE00822B1
:102520006068013D0838EDB2134037D000F07AFB07
:102530005A49A80042585A4B002A1CD056684650A7
:102540001100585D0831616003280BD800F0F8FFD6
:1025500002040608032104E0022102E0052100E054
:10256000042159550821C8230C4200D1403B128850
:10257000120413433DE0585D032808D800F0E0FF43
:102580003A3A0204002200E001225A5532E00822C1
:102590001440621E944102345C552BE02268110CF9
:1025A0008AB2028000291ED03E4943804360AB00BE
:1025B0005F583D4E002F01D1585001E0F15848605E
:1025C0003A496D00F0506B5AD2186A5200F00CFB79
:1025D000002802D00830606005E0354A206013789A
:1025E0000133137006E008231C4201D1314B00E097
:1025F000284B23600822304B1A705EE5012004420C
:102600001ED002231B492B4C0B702C4B2C4E1A70E6
:102610002C4B1C609C602C4C1A61DC600D249A6170
:102620005E602A4B1C70FF23294C23701A4C2B70C0
:102630002270284A13709F22274B1A70087013E0EB
:1026400063B2002B04DA0D22204B1A7080232B700A
:102650000222144204D01E490B78DBB20B702A70A0
:1026600010231C4200D02B70F7BDC046E8050020A7
:10267000F006002094200740E806002021200000FA
:10268000E40800206D06002021090002020001007C
:102690000F070020C800400098200740B006002027
:1026A0000806002050060020EC050020C808002085
:1026B000F206002088004000802007406C060020C1
:1026C0001006002000F8FF1F70060020C020074001
:1026D000882007408C2007408420074010B500F078
:1026E000F3FE002211001B4BD150981808324160B4
:1026F000E82AF9D180201849C0020A6802430A601A
:102700001A0A1649D2B20A701A0C1549D2B20A70C6
:10271000144A1B0E1370FF23134A00201370134A30
:1027200013491370134A137001220A70124908707A
:1027300012490A70124A116899430B0070210B4329
:10274000136080220F4B52041A6010220E4B1A7035
:1027500010BDC04600F8FF1F348004409C20074095
:10276000B0200740B4200740802007408820074061
:102770009420074010200740002107408420074094
:1027800018E400E000E100E00821074010B500F087
:1027900043FB10BD10B500F00FFB10BD10B500F0ED
:1027A000E3FA10BD10B500F027FB10BD10B500F026
:1027B000EDFB10BD10B500F0C3FB10BD10B5080057
:1027C000110000F043FB10BD10B5080000F0AEFB97
:1027D00010BD704710B5224C224B1B78002B3BD00C
:1027E0000720FFF7DDFB032804D9013C1E4B002C1A
:1027F00029D12BE000F0F8F9011EF6D01B48038820
:1028000042880B729B0594009B0F23434B72838875
:1028100092051C01120F22438A72C2889B05900107
:102820009B0E0343CB72124B92080A731A7807204F
:102830004A735A788A739B78CB7308230B80FFF70F
:10284000FDFB00200AE01A78002A02D001221A704B
:1028500002E000F0EDFBBFE70120404210BDC046A2
:1028600099530000FB0600200E070020DA08002024
:10287000D608002003001F2807D828200A2B0BD0D9
:1028800000200B2B08D12B3006E000207F2B03D833
:102890000248C318203B18787047C0466C5A0000A5
:1028A00070B5184C184B01201B78002B28D0FFF76F
:1028B00077FB032804D9013C144B002C16D118E0F7
:1028C00000F092F9051EF6D00024114B44721B78DB
:1028D000062203720F490A3002F036FD0823012058
:1028E0002B802900FFF7AAFB20000AE01A78002AB3
:1028F00003D0012201201A7002E000F099FBD1E719
:10290000404270BD99530000FB0600200E070020D6
:102910000A0700200407002070B500290BD0134AD5
:1029200013781C000C40A14205D00B431370012208
:10293000002803D116E0002816D0002200230C4CFA
:102940001D5D210085420BD00133062BF8D10023F9
:10295000CC5C002C01D1C85404E00133062BF7D124
:10296000002A01D0FFF79CFF70BDC0460A07002077
:102970000407002010B5020AC12A4DD9D3B2DF2ABC
:1029800007D8F8223F219B01D2001340084018438A
:1029900042E0F02B02D1C0B2002146E0E02B02D190
:1029A000C1B2002041E0E22B19D1C0B200283ED0D4
:1029B0001F4B1C78A0423AD05978884237D09A7879
:1029C000904234D0002C05D0002905D0002A2ED109
:1029D000023202E0002200E00122985415E01C338C
:1029E000DBB2032B23D88005800D20D000231149B2
:1029F000CC5A0A0084421AD00233082BF8D10023A3
:102A00005900545A002C03D15052FFF7E3FE0EE058
:102A10000133042BF4D10AE0FFF72CFF002806D085
:102A20003F234106C90F49001840FFF775FF10BD4D
:102A3000D6080020DA08002070B500290BD00E4A15
:102A400013780B4207D08B4313700122002805D165
:102A5000FFF726FF0FE000280DD0002200231C0006
:102A600006495D5C854201D101225C540133062B8D
:102A7000F7D1002AECD170BD0A070020040700201E
:102A800010B5020AC12A41D9D3B2DF2A07D8F822E9
:102A90003F219B01D20013400840184336E0F02B41
:102AA00002D1C0B200213AE0E02B02D1C1B2002035
:102AB00035E0E22B14D1C0B2002832D0194B1A787D
:102AC000824207D05A78824206D09A78824228D130
:102AD000022202E0002200E00122002199540EE0CF
:102AE0001C33DBB2032B1CD88005800D19D00023CA
:102AF0000D4A5900545A844204D100238B52FFF7E7
:102B000069FE0EE00133042BF3D10AE0FFF7B2FEB9
:102B1000002806D03F234106C90F49001840FFF79F
:102B20008BFF10BDD6080020DA080020002370B506
:102B3000084C094D207029706370A370E3702371F5
:102B40006371FFF7ADFE002803D128702070FFF7F6
:102B5000A7FE70BD040700200A07002010B5FFF78C
:102B600089FE011E06D03F2008404906C90F4900D2
:102B7000FFF7DCFF10BDFFFF43B210B5184A002B72
:102B800003DB002380B213600BE0BF2814D83F237F
:102B900018401368012B07D100231360114B1B88C9
:102BA0001843FFF7DBFF19E0022B17D10D49800115
:102BB0000B881843088007E0DF2807D8F823800136
:102BC000DB001840074B1880012306E0FF23EF28A5
:102BD00003D8044B000318800223136010BDC046C5
:102BE000000700200C07002070B572B60B4D2C6852
:102BF000200000F06DFE1D2802DD62B600200CE012
:102C000080231B06C3409C432C6062B64823584374
:102C1000034B181800230360436070BD540200206A
:102C2000C0F9FF1F10B504000E484821201A00F01B
:102C30009BFC1D2814D80C4B1B78002B07D00B4B8A
:102C40001B78002B03D02000FFF7BCF908E072B618
:102C500080231B06C340064A11680B43136062B60B
:102C600010BDC046C0F9FF1FF2060020FB06002081
:102C700054020020F7B50193030005000C000092F8
:102C8000803301D17F256D422300803301D17F2421
:102C90006442009B803302D17F235B420093019BFF
:102CA000803302D17F235B4201931A4F1A4B1B786A
:102CB000002B2CD00520FFF773F9184E022803D9FA
:102CC000013F002F1AD11CE0FFF78EFF011EF7D045
:102CD00001230372124B00271B78857243726B46E7
:102CE0001B78C47203736B461B79377043730623DA
:102CF00003800520FFF7A2F938000AE03378002BA3
:102D000002D00123337002E000F092F9CEE70120F7
:102D10004042FEBD29320000FB06002011070020C2
:102D20001007002070B5451EA84104AC2478C0B23D
:102D3000002901D004210843002A01D002221043B7
:102D4000002B01D008231843002C01D01023184376
:102D5000044B187000231A0019001800FFF78AFFAF
:102D600070BDC0461007002070B5114D2B68002BB8
:102D70000CD0286843885A1CC3181C7A03889A42CE
:102D800012D3FFF74FFF00232B600EE0094B1B7897
:102D9000002B02D10120404208E00320FFF7E6F8B3
:102DA00028600028E5D1F5E74280200070BDC046CC
:102DB0001C070020FB06002010B50D4C2368002BDB
:102DC00003D02268002A0ED103E00A4B1B78002BA7
:102DD00002D10120404209E00320FFF7C7F820603C
:102DE0000028EED1F5E75388D318187A10BDC046F5
:102DF0001C070020FB060020054B9888054B1A682D
:102E0000002A03D0138852889B1AC0187047C04606
:102E1000C80800201C07002010B50A4B1B78002BA7
:102E20000FD0094C2068002803D0FFF7FBFE0023D9
:102E300023600320FFF79AF8002802D0FFF7F2FE84
:102E4000F7E710BDFB0600201C070020314A0123D4
:102E5000F0B50C00170085B0019002911370039338
:102E6000002C53D02C4D2B68002B25D12B4E2C4BF6
:102E70001B78DBB2002B01D13B7017E00420FFF779
:102E80008FF8072809D86B461B7B3B70FFF7ACFE19
:102E9000214B186000280FD13870013E214B002EC5
:102EA00002D01A78002A04D001221A700120404270
:102EB0002EE000F0BDF8DAE700221A4B29681A70FC
:102EC00040234A88981A2300844200D9030008004E
:102ED00008308018D2184A800022E41A934204D0A5
:102EE000019EB65C86540132F8E7019AD31801932B
:102EF0004B883F2B06D9402304200B80FFF79EF818
:102F000000232B600522084B1A70A9E702983C7039
:102F100005B0F0BD1307002014070020097500005C
:102F2000FB060020180700201207002007B56B469B
:102F3000D871073301211800FFF788FF0EBDFFFF8E
:102F4000012370B50E4C0F4D23702B68002B10D150
:102F50000D4B1B78002B02D1002020700FE00420C5
:102F6000FFF71EF80728F7D8FFF73EFE2860002875
:102F7000F2D02B6858884023181A0023237070BDA4
:102F80001307002014070020FB060020F7B5124BA2
:102F90001B78002B1FD00126104F114B3C681E7070
:102FA0000193104D002C09D000262E70638821005B
:102FB00023800420FFF742F83E6009E0FFF714FE8B
:102FC000011E04D004202C70FFF738F800E02E70AA
:102FD0000023019A1370F7BDFB06002014070020A0
:102FE000130700201207002070B50E4B1C78E4B2C6
:102FF000002C15D10C4D2968002906D04B880420DF
:103000000B80FFF71BF82C600AE0FFF7EDFD011EB7
:1030100003D00420FFF712F802E00122034B1A70DC
:1030200070BDC046130700201407002012070020BF
:1030300070B5234C2378002B40D101332370FFF768
:10304000DBFE002801D0FFF7C4FB00F0E3F8002806
:1030500001D000F0DBF800F049F9002801D000F0C1
:10306000D6F800F0AFF9002801D000F0D1F8002325
:103070002370EFF30583002B20D1EFF3108272B69B
:10308000104D2868002803D00F4C2178002903D068
:10309000002A13D162B611E00123237043692B602B
:1030A000002B01D0996101E008490B60002A00D192
:1030B00062B60025836845779847257070BDC04685
:1030C00021070020340700203807002030070020A7
:1030D000EFF3108072B643425841C0B270470028E7
:1030E00000D062B67047FFFF10B5FFF7F1FF0C4A42
:1030F0001468002C10D063691360002B02D00022EA
:103100009A6101E0074A1360FFF7E9FF00232000FE
:103110006377A3689847E8E7FFF7E1FF10BDC04673
:10312000240700202807002010B5FFF7DDFF10BDA1
:10313000164930B50B68002B02D18360C36009E0EB
:1031400004681A68944207D20025121B8360C56088
:10315000D8601A60086016E002681C689968121B43
:10316000026000290CD00C680B00A242F4D28160EE
:10317000C968A21AC160D860C16888601A6002E09C
:103180008160C36098600223037530BD2C07002066
:1031900070B5174D2C68002C19D02368002B02D075
:1031A000013B236013E0A268002A00D0D360002115
:1031B00020692A60036821751B68220098476368AC
:1031C000002BE7D023602000FFF7B2FFE2E7FFF714
:1031D0007FFF0022074B1C681A60FFF780FF002C5E
:1031E00005D0A5682000FFF7A3FF2C00F7E770BD0E
:1031F0002C0700203C07002010B5034A1368013358
:103200001360FFF7C5FF10BDE4050020704770474D
:103210007047FFFF054B1878054BC0B21A78D3B240
:10322000984200D24030C01A7047C046C307002001
:103230004107002030B5234A13799B0611D5224B54
:10324000D479187819000130E4B200233F2800DC5B
:1032500003001E480078834203D01D48C454DBB2EB
:103260000B70D1781748C9B24BB2002B17DA03792B
:103270005BB2002B13DA174B174C1D782378DBB2A7
:103280009D4202D16C23C37009E001333F2B00D96A
:1032900000231248C05CDBB2C0B2D071237040235F
:1032A00019420ED0117919420BD000210C4B197024
:1032B0000C4B1B688B4202D00B49097819722C23E6
:1032C000D37030BD00A00640C30700204107002096
:1032D00082070020CC070020C407002042070020FE
:1032E00040070020C8070020C2070020054B1878BF
:1032F000054BC0B21A78D3B2984200D24030C01AFF
:103300007047C04638080020CE07002030B5234A59
:1033100013799B0611D5224BD47918781900013006
:10332000E4B200233F2800DC03001E4800788342FB
:1033300003D01D48C454DBB20B70D1781748C9B212
:103340004BB2002B17DA03795BB2002B13DA174B61
:10335000174C1D782378DBB29D4202D16C23C370D9
:1033600009E00133272B00D900231248C05CDBB2EF
:10337000C0B2D0712370402319420ED01179194286
:103380000BD000210C4B19700C4B1B688B4202D0E8
:103390000B49097819722C23D37030BD00B0064058
:1033A00038080020CE070020F70700204008002042
:1033B00039080020CF070020CD0700203C0800205E
:1033C00037080020054B1878054BC0B21A78D3B2E5
:1033D000984200D24030C01A7047C046B40800205E
:1033E0004908002030B52C4A13799B0623D52B4B76
:1033F000D479187819000130E4B200233F2800DCAA
:10340000030027480078834203D02648C454D8B22A
:1034100008702549086800280DD024490978C9B2E8
:103420008B4201D35B1A01E05B1A4033272B02DD8C
:103430001F4B1B780371D1781748C9B24BB2002BD0
:1034400017DA03795BB2002B13DA1A4B174C1D788D
:103450002378DBB29D4202D16C23C37009E00133B3
:10346000272B00D900231448C05CDBB2C0B2D07156
:103470002370402319420ED0117919420BD000213C
:103480000E4B19700E4B1B688B4202D00D49097808
:1034900019722C23D37030BD00C00640B408002040
:1034A000490800207308002044080020B5080020C7
:1034B00072080020BC0800204A08002048080020AC
:1034C000B8080020B308002030B585B072B670226D
:1034D0004121154B1A70154A1170154A3239117075
:1034E00080221A701A7852B2002AFBDA114B18683F
:1034F00062B6114B984201D80A23584301AC0A2204
:103500002100FEF717FB00230C48E15C05000029B1
:1035100005D05A008218013351800A2BF5D10133AE
:103520005B002B7005B030BD000002400700024078
:1035300006000240080002407F96980084040020A4
:1035400002B4714649084900095C49008E4402BC36
:103550007047C04603B47146490840004900095A03
:1035600049008E4403BC7047002243088B4274D349
:1035700003098B425FD3030A8B4244D3030B8B4274
:1035800028D3030C8B420DD3FF22090212BA030C7D
:103590008B4202D31212090265D0030B8B4219D35E
:1035A00000E0090AC30B8B4201D3CB03C01A52417E
:1035B000830B8B4201D38B03C01A5241430B8B42C6
:1035C00001D34B03C01A5241030B8B4201D30B03AF
:1035D000C01A5241C30A8B4201D3CB02C01A5241D6
:1035E000830A8B4201D38B02C01A5241430A8B4299
:1035F00001D34B02C01A5241030A8B4201D30B0282
:10360000C01A5241CDD2C3098B4201D3CB01C01A9B
:10361000524183098B4201D38B01C01A52414309A5
:103620008B4201D34B01C01A524103098B4201D393
:103630000B01C01A5241C3088B4201D3CB00C01A00
:10364000524183088B4201D38B00C01A5241430878
:103650008B4201D34B00C01A5241411A00D201469D
:10366000524110467047FFE701B5002000F0F0F826
:1036700002BDC0460029F7D076E7704703460B43EA
:103680007FD4002243088B4274D303098B425FD35B
:10369000030A8B4244D3030B8B4228D3030C8B4287
:1036A0000DD3FF22090212BA030C8B4202D312126D
:1036B000090265D0030B8B4219D300E0090AC30B42
:1036C0008B4201D3CB03C01A5241830B8B4201D3EF
:1036D0008B03C01A5241430B8B4201D34B03C01AD8
:1036E0005241030B8B4201D30B03C01A5241C30A50
:1036F0008B4201D3CB02C01A5241830A8B4201D3C1
:103700008B02C01A5241430A8B4201D34B02C01AAA
:103710005241030A8B4201D30B02C01A5241CDD24F
:10372000C3098B4201D3CB01C01A524183098B429A
:1037300001D38B01C01A524143098B4201D34B0183
:10374000C01A524103098B4201D30B01C01A5241E6
:10375000C3088B4201D3CB00C01A524183088B426D
:1037600001D38B00C01A524143088B4201D34B0056
:10377000C01A5241411A00D20146524110467047C8
:103780005DE0CA0F00D04942031000D340425340CD
:1037900000229C4603098B422DD3030A8B4212D38D
:1037A000FC22890112BA030A8B420CD389019211BF
:1037B0008B4208D3890192118B4204D389013AD0FC
:1037C000921100E08909C3098B4201D3CB01C01AD1
:1037D000524183098B4201D38B01C01A52414309E4
:1037E0008B4201D34B01C01A524103098B4201D3D2
:1037F0000B01C01A5241C3088B4201D3CB00C01A3F
:10380000524183088B4201D38B00C01A5241D9D256
:1038100043088B4201D34B00C01A5241411A00D2D7
:103820000146634652415B10104601D34042002BD3
:1038300000D54942704763465B1000D3404201B552
:10384000002000F005F802BD0029F8D016E7704707
:103850007047C0468446101C62468C46191C63465D
:1038600000E0C0461FB500F0BDFD002801D40021D6
:10387000C8421FBD10B500F011FD4042013010BD1F
:1038800010B500F0AFFD002801DB002010BD0120C5
:1038900010BDC04610B500F0A5FD002801DD0020D8
:1038A00010BD012010BDC04610B500F037FD002846
:1038B00001DC002010BD012010BDC04610B500F095
:1038C0002DFD002801DA002010BD012010BDC046EA
:1038D0001C2101231B04984201D3000C10391B0A40
:1038E000984201D3000A08391B09984201D3000904
:1038F000043902A2105C40187047C046040302025B
:1039000001010101000000000000000070B500226C
:103910000C4B04000D00FFF7D1FF002804D120005C
:10392000290001F0B7FB70BD064B002220002900E2
:1039300001F03CF801F0AEFB80231B069C4660447E
:10394000F1E7C0460000E041F0B557464E46454617
:103950004300E0B446028846760A1F0EC40F002FCB
:1039600047D0FF2F25D0002380259A469946F600A0
:10397000ED042E437F3F434642465D02D20F5B007B
:103980006D0A1B0E904640D0FF2B39D080220020BC
:10399000ED00D20415437F3BFB1842465746591CA5
:1039A00062408C4607430F2F5CD86F49BF00C9594E
:1039B0008F46002E45D108239A46063B9946DAE702
:1039C000424602282DD0032800D1C3E0012800D0B0
:1039D000A2E0002500260240D4B27602ED05760A68
:1039E0002E43E407264330001CBC90469946A2466D
:1039F000F0BD002E1AD104239A46033B9946BAE73C
:103A00002A00511E8A41901CC6E70120002DC3D018
:103A10002800FFF75DFF431F76309D4043420020A2
:103A2000BAE70124FF2514400026D6E73000FFF74F
:103A30004FFF431F9E400023763047429A469946E7
:103A400099E70C239A46093B994694E7802600247F
:103A5000F603FF25C1E735004846B2E735002200EE
:103A60004846AEE72904090C0800370C3604360C2A
:103A70002C0C7943704367437443060C6418361961
:103A8000B14203D980214902884647440004000C12
:103A9000310409188D01681E8541890E2943350CB2
:103AA000ED19AD010D43290104D5012369081D401D
:103AB00063460D4319007F31002925DD680704D0D6
:103AC0000F202840042800D00435280103D52749B9
:103AD00080330D401900FE29A3DC0124AD016E0ADC
:103AE0001440CDB279E78020C003064207D00542DA
:103AF00005D128434602760A4446FF256DE7064372
:103B00007602760AFF2568E70124611A1B2905DD84
:103B100014400025002660E76346CBE72E002023F3
:103B2000CE40591A8D406B1E9D412E43730704D021
:103B30000F233340042B00D00436730104D5012435
:103B400001251440002648E70124B601760A1440F6
:103B5000002542E780260124F6032E437602760AEA
:103B60001440FF2539E7C046885B0000FFFFFFF7E0
:103B70004302590A4300C20F1B0E00207E2B0EDDAC
:103B80009D2B0DDC802000040143952B0BDC96203F
:103B9000C31AD9400B005842002A00D118007047C0
:103BA000034BD018FBE7963B99400B00F3E7C04668
:103BB000FFFFFF7F70B5002830D0C317C5185D40E8
:103BC000C40F2800FFF784FE9E231B1A962B0DDCE2
:103BD0009622D21A95406A02520AD8B25202C00501
:103BE000520AE40702432243100070BD992B19DCEE
:103BF0009922D21A9540124A2A40690704D00F210F
:103C00000D40042D00D00432510103D50C4B1A4055
:103C10009F231B1A9201520AD8B2DFE7002400202A
:103C20000022DBE705222E00121AB921D6402A0015
:103C3000C91A8A40551EAA4135001543DBE7C04624
:103C4000FFFFFFFBF8B556465F464D464446F0B4CD
:103C50000F00FD0FAA4609037C002E005F00450FF0
:103C6000490A7F0D2943C5001803BC46400A570F77
:103C7000640DDB0F3843D2009A4500D1AAE06646B6
:103C8000A61B002E00DCFFE06346002B39D10300A9
:103C9000134300D0D9E06B0709D00F232B40042B2E
:103CA00005D02B1DAB42AD416D4249191D000B02E1
:103CB00000D482E0CA4B01349C4200D1FEE00A00ED
:103CC0005646C84BED081A4050076405520205439A
:103CD000120B640D002112030B0D1B056405120B62
:103CE0001A436308C04CF60714401C436400640880
:103CF0003443280021003CBC90469946A246AB467E
:103D0000F8BDB74B9C42C6D080231B041843382E05
:103D100000DDEBE01F2E00DD1EE120239B1B9C46F7
:103D200003006746BB40984613004746F3403B43B9
:103D30006746BA40571EBA4113430200F240EB1ADD
:103D40009D42B6411D008A1A7642911B0B0231D565
:103D50004A02560A002E00D1B4E03000FFF7B8FD49
:103D60000300083B1F2B00DDB5E020222900D21AFA
:103D7000D1409E400A009D4032439C4200DDB1E0AC
:103D80001C1B631C1F2B00DDD5E020211400280024
:103D9000C91A8C40D8408D400443DA40681E8541E2
:103DA00011002543002476E74146314300D134E237
:103DB000310045466B0700D06FE756464807ED08CF
:103DC000C9080543864B9C4235D00A036405120B93
:103DD000640D7FE76346E31A9B46002B00DC8BE013
:103DE0006746002F3CD07E4FBC4200D153E780276E
:103DF0003F0438435B46382B00DCF7E00243501E9B
:103E000082410020D2B253194218AB4289411D00B1
:103E1000494289180B02CDD5714B01349C4200D127
:103E20003DE101206F4A6B080A4028401843D5073E
:103E3000054351082FE72B000B4300D1CBE1802332
:103E40001B030B431A03120B44E7013E002E6DD1F6
:103E5000AE1AB5429B41091A5B42C91A350075E793
:103E60000700174300D116E701235B429C46E34459
:103E70005B46002B00D0E0E0AA18AA429B4109183B
:103E80005B4259181500C5E7002E75D1661C7605F2
:103E9000760D012E00DCF3E0AE1AB0464545BF4179
:103EA0000E1A7F42F61B370200D48FE0551BAA4240
:103EB000B641411A76428E1B9A464BE7564600227F
:103EC000002507E72800FFF703FD20300300083B2B
:103ED0001F2B00DC49E72A002838824000259C423D
:103EE00000DC4DE73F49E41A1140D4E60243501E7E
:103EF0008241D3B2002222E7002B00D0F3E0631C02
:103F00009C465B055B0D012B00DC9FE0344B9C4520
:103F100000D1C3E0AA180918AA42804140424118C2
:103F2000CD075208154349086446B4E62C4B9C4221
:103F300000D0ECE6AFE611001F3CE1400C00202B66
:103F400000D17FE04021CB1A9A4015436A1E95416B
:103F50000021254300242DE733000700203BDF40EC
:103F60003B00202E70D04027BE1BB0400243501EA5
:103F7000824113430022E2E6002C4FD0184CA445A6
:103F800000D1ABE08024240476422143382E00DDAA
:103F9000DFE01F2E00DD43E12027BC1BA1460C0003
:103FA0004F46BC40A0462C004746F4403C434F4699
:103FB000BD406F1EBD41F1402C43151BAA429241EA
:103FC000411A5242891A64469A46BFE6414645461E
:103FD000314300D0BEE6002600240025F2E6C046AC
:103FE000FF070000FFFF7FFFFFFF0F801F2B59DC43
:103FF0002027FF1ABC46070063469F405B46B94630
:104000001700DF40B8464F4643461F4363469A4079
:10401000531E9A415B463A43D840F4E60C002C43C9
:104020005CD0F643002E55D1551BAA42A441411A3B
:104030006442091B9A46644688E6964FBC4200D00B
:10404000D8E628E6002280E700208FE70B002B430C
:10405000002C00D0C2E0002B00D101E1030013438B
:1040600000D118E6AB18AB42B64109187642711878
:104070000A0200D409E1884A1D00114064460AE69C
:10408000002C5BD10E002E4300D08AE001001143CA
:1040900000D1C2E0010015009A46FCE5644600210B
:1040A00000258FE620235B429C46DC4463460700E4
:1040B000DF405B46BC46202B00D1ACE040235F468E
:1040C000DB1B98400243501E8241634613431A0093
:1040D000002098E66F4CA44500D057E7010015007A
:1040E00064469A46D7E5002C39D10C002C436ED09B
:1040F000DB43002B1AD0674CA44568D0382B00DD79
:10410000A4E01F2B00DDAEE020240F00E41AA7403E
:10411000B9462F00DF40B846A3464F4644462743E2
:104120005C46A5406C1EA541D9403D43AD18954263
:104130009B4109185B42591864466BE60C002C43FE
:1041400015D1010011437BD0010015009A46514C56
:10415000A1E50D43691E8D410021ECB22DE74D4CC8
:10416000A44534D0802424045B422143C6E70400E4
:1041700014434ED0ED084C072C438025C9082D036D
:10418000294208D0C6082E4205D1D2084107114362
:104190000C009A463100620FC900E50011433D4C06
:1041A00079E50600164300D175E5AE1AB0464545DF
:1041B000BF410E1A7F42F61B370200D4F4E5551BAF
:1041C000AA42B641411A7642891B9A4663E501002C
:1041D000150064465FE5002200257BE5002B3BD0FF
:1041E0000300134315D0ED084B072B438025C90866
:1041F0002D03294207D0C4082C4204D141070B00EB
:104200002100D2081343C9005A0F1143DD00214C8D
:1042100041E5204C3FE5002054E700260025D1E58C
:1042200034000F00203CE7403C00202E2BD04027DC
:10423000BE1BB1400D43691E8D4100212C43BCE6DD
:10424000802100260903134C0025BBE50D43691EA0
:104250008D410021EDB269E7010015000D4C1AE512
:104260000100150017E51C000F00203CE7403C0052
:10427000202B0CD04027FB1A99400D43691E8D411D
:104280000021254352E70021D4E71D0092E50021DB
:10429000F3E7C046FF070000FFFF7FFFF0B55F4672
:1042A00056464D464446F0B41F035C00DB0F9A4669
:1042B000194B0E034D00C90F8046360B6D0D8B4612
:1042C00091463F0B640D9D4219D0134B9C421BD06D
:1042D0000123A54206D018003CBC90469946A24650
:1042E000AB46F0BDBE42F6D1C845F4D1D34510D09F
:1042F000002DF0D1304303005A1E9341EBE731000B
:1043000001230143E7D1E0E73A430123002AE2D148
:10431000DEE70023DFE7C046FF070000F0B55F4699
:10432000444656464D46F0B41F033C0B2C4F0E033B
:104330004D00A3465C008446360B6D0DC90F9046B8
:10434000640DDB0FBD422BD0254FBC422ED0002D7B
:104350000ED130430700814678427841002C17D1B6
:104360005F463A4314D14B460020002B0AD006E0AA
:10437000002C02D15846024301D099421AD00123A1
:10438000484218433CBC90469946A246AB46F0BD15
:104390000028F2D058425841012240421043F1E730
:1043A00037000743D0D002204042EBE75F46174377
:1043B000CDD0F8E7A542E2DC05DB5E45DFD808D0CA
:1043C00000205E45DED24842484101234042184366
:1043D000D8E7C445D3D80020C445F4D3D2E7C046BB
:1043E000FF070000F0B55F464D4644465646F0B420
:1043F0001C03240BA4462F4C0F034D005E00C90F75
:1044000080463F0B6D0D8B469146760DDB0FA54226
:1044100020D0284CA64222D0002D12D1384344424D
:104420004441002E20D0002C0DD05C426341012479
:104430005B421C4320003CBC90469946A246AB46DA
:10444000F0BD002E17D05B4519D05B465C420123BE
:104450001C43EFE7390002240143EBD1D9E7614661
:1044600002241143E6D1D7E761460A43DBD1002499
:104470000028DFD0E9E761460A43E4D1E5E7B54229
:1044800003DD01225C421443D4E7B542CDDB67452E
:10449000DBD809D000246745CCD259464C42614153
:1044A000012449420C43C5E7C845CED80024C8457D
:1044B000F3D3BFE7FF070000F0B55F4656464D4611
:1044C0004446F0B40D0399464E002B0B87B007000D
:1044D000924680469B46760DCC0F002E69D06D4BE0
:1044E0009E4235D05B468022DD001204430F134309
:1044F0002B439B46C3009846674B00279C460023EE
:10450000664401934A4615035000D20F53462D0BC3
:10451000400D914600D176E05E4A90426CD08022F8
:104520005B0F120413435C4AED0094461D4353464F
:104530000022DB00604449463618701C614002903E
:1045400017430F2F00D9AFE05448BF00C759BF46EB
:104550005B461F4300D088E000239B469846023309
:1045600008270193CEE74946022A6AD0032A00D1E0
:1045700009E2012A00D0BBE11140002200230025FE
:104580009046CCB200212D030A0D12052D0B1543C8
:10459000434A1B0515401D436D00E4076D08254384
:1045A0004046290007B03CBC90469946A246AB461F
:1045B000F0BD034352D05B46002B00D18AE1584640
:1045C000FFF786F903000B3B1C2B00DD7BE11D226E
:1045D000D31A3A0001005D46DA4008398D401300D5
:1045E0008F402B439B46B8462E4B00279C4600230A
:1045F00060444642019385E752462A432CD1002568
:104600000023022297E752462A4321D0002D00D1F1
:1046100054E12800FFF75CF903000B3B1C2B00DD85
:1046200046E11D21CB1A51460200D9405346083AB3
:10463000954093400D431B4A9446604440420022FB
:1046400079E7012400220C40124B0025904699E79F
:104650000025002301226EE703226CE700239B461E
:1046600098460133042701934CE703230C27019359
:1046700048E700238025984600242D03054B81E759
:104680005D464346019A6FE75D4643462100019A25
:104690006AE7C046FF07000001FCFFFFC85B00009F
:1046A000FFFF0F80F30300004246120C91461A0CE4
:1046B0009446424617044A461B041B0C5A43604664
:1046C00090464A4642431000039262461C003F0C4B
:1046D0007A437C4342440192220C9246019A52440E
:1046E000904506D98246802040028046C24450460A
:1046F0000390100C049048462404240C1204121950
:1047000005922A0C2D042D0C68432C008246484645
:104710007C4350438146200C8046574357444744CE
:10472000BA4503D9802040028046C144380C3F047A
:10473000B84648442404240C01900498A044404402
:1047400004905846000C814658460404200C8246CA
:10475000070048465F434C46434360466043644617
:10476000834650464443380C8446E4186444A342CC
:1047700003D980235B029C46E34448463F04230C54
:104780003F0C2404E419574668436F4384464D4662
:10479000504655434243380C814662444A445B4488
:1047A000944503D9802040028446654403983F0421
:1047B000834604983F0C8446E344C345804140420D
:1047C0008246100484460198674484466744A344A3
:1047D000BC46A345A4419946D44464428742BF41A4
:1047E000D4458041E144A04699459B417F424042E7
:1047F000C8440743120CBA18A045A4415F423B00CD
:1048000064422343D71843467D19DB0D6D021D43D7
:104810005B465A02059B1A43531E9A415B46DB0DC9
:104820001A4343465B021343EA0107D501225C08A1
:1048300013402343EA07029E13436D08574AB218F8
:10484000002A4BDD580709D00F201840042805D056
:10485000181D98429B415B42ED180300E80104D506
:104860004F4A15408022D200B2184E48824200DDE5
:10487000E7E60124DB08680718436D02530580460C
:104880002D0B5B0D0C407DE6802259461203114230
:1048900008D0154206D115432D0398462D0B4C46E2
:1048A000414B6FE65D4615432D032D0B3E4B69E6EC
:1048B00003005546283B9D400023BCE65046FFF7C9
:1048C00007F82030A8E60300283B9F400023BB46A2
:1048D000984689E6FEF7FCFF203073E60124A61A0D
:1048E000382E07DD00220C4000230025904649E6C3
:1048F000029EA3E71F2E20DC20222C001800921B12
:10490000F040944093400443581E83411C43F540BB
:10491000630709D00F232340042B05D023001C1D5F
:104920009C4292415242AD182B021FD50124002215
:104930000C4001230025904624E61F202C00404215
:10494000821AD440202E1CD04022961BB5402B4307
:10495000581E83410720234318400025002809D012
:104960000F2200251A401C00042AD8D12300680712
:104970006D022D0B0124DB08034398460C400023F5
:1049800000E60025E3E780220124120315432D03EE
:1049900098462D0B0C40044BF4E5C046FF03000085
:1049A000FFFFFFFEFE070000FF070000F0B55746BF
:1049B0004E464546E0B40E001100F20F9246C50087
:1049C000420F180337037400400A4E0F7F0A30432A
:1049D000CF4E17435A00640D520DDB0FC900B2428F
:1049E00000D1E5E001267340A61AB446534500D134
:1049F000AFE0002E00DC0DE1002A3AD103000B43AA
:104A000000D0E4E06B0709D00F232B40042B05D026
:104A10002B1DAB42AD416D427F191D003B0200D4FE
:104A200088E0BB4B01349C4200D110E13A00B94B05
:104A300051461A4001235007ED0852026405054310
:104A4000120B640D0B400021280012030D0D120BF8
:104A500064052D0515436208AF4CDB072C40144359
:104A6000640064081C4321001CBC90469946A24681
:104A7000F0BDA74B9C42C5D080231B04184363465E
:104A8000382B00DDFDE01F2B00DD30E162462023E6
:104A90009B1A02009A40664690460A009940F240EE
:104AA00046464B1E99413243114363460200DA40A9
:104AB000691A8D429B410D00BA1A5B42D71A3B021C
:104AC00035D57A02530A98464346002B00D1C4E0FC
:104AD0004046FEF7FDFE0300083B1F2B00DDC5E04E
:104AE00020222900D21A4746D1409F400A009D400B
:104AF0003A439C4200DDC0E01C1B631C1F2B00DD01
:104B0000E4E0202114002800C91AD8408C408D40D0
:104B10000443DA40681E854117002543002471E7ED
:104B2000424663461A4300D14CE2674645466B074E
:104B300000D069E7012351467807ED08FA080B40D9
:104B4000054373498C4238D012036405120B640D7F
:104B500079E7002E00DC9AE0002A47D06C4A9442A4
:104B600000D14FE78022120410436246382A00DC4D
:104B700008E10143481E81410022C9B24919D219F6
:104B8000A942BF410D007F42BF183A0200D442E162
:104B90005F4A0134944200D14EE101205D4A690828
:104BA0003A4028400843D507054357089A4629E765
:104BB00006000E4300D017E714E72900114300D187
:104BC000F9E1802109030A431203120B3BE7012399
:104BD0005B429846C4446346002B72D1691A8D42E9
:104BE0009B413F1A5B42FF1A0D0068E702000A432F
:104BF00000D107E7012252429046C4446246002A8F
:104C000000D0E6E06918A942B6413F187642F7198C
:104C10000D00BAE7002E00D080E0621C5205520D54
:104C2000012A00DCF9E06A1A91464D45B6413A1A6C
:104C30007642921B9046120200D499E04D1BA94285
:104C40008941C71B49427A1A90469A463CE7524628
:104C50000123002513400022F5E62800FEF738FE68
:104C600020300300083B1F2B00DC39E72A002838DE
:104C7000824000259C4200DC3EE7264FE41A1740A4
:104C8000C0E60143481E81410022C9B210E7002E50
:104C900000D0F1E0621C94465205520D012A00DC5E
:104CA000A0E01B4A944500D1C5E06918A942924191
:104CB0003F185242D2194908D5070D435708644698
:104CC000A0E6134B9C4200D0D9E69BE611001F3CA6
:104CD000E1400C00202B00D180E04021CB1A9A400B
:104CE00015436A1E95410027254300241FE76346AC
:104CF0000200203BDA406346202B71D040236646F9
:104D00009B1B98400143481E814111430022CFE67E
:104D1000FF070000FFFF7FFFFFFF0F80002C48D040
:104D2000CA4CA24200D1A2E07442A14680242404CD
:104D300027434C46382C00DDDBE01F2C00DD44E12E
:104D40004E462024A41B3E00A640A246B0464C4638
:104D50002E00E640B4464646644626435446A540E7
:104D60006C1EA54134002C434D46EF400D1B28E03E
:104D70004A4643464D461A4300D0A5E60023002488
:104D80000025DEE61F2A5ADC66462022921B06001A
:104D900096409146B04662460E00D64042461643C3
:104DA0004A4691404A1E9141020060463143C2404A
:104DB000E4E63C002C435AD0F443A146002C52D1E7
:104DC0004D1BA9428941C71B49427F1A14009A46CC
:104DD00075E69E4A944200D0C7E613E600227FE7BC
:104DE00000208FE7002C00D0C8E03B002B4300D10F
:104DF0000FE103000B4300D104E66918A9429B416F
:104E00003F185B42DF193B0200D41AE1904B0D00C2
:104E10001F406446F6E59A4689E63A002A43002C8C
:104E20005CD1002A75D102000A4300D1CAE0070014
:104E30000D009A46E6E564460022002581E66246BA
:104E40000600203AD6406246B046202A00D1B7E09C
:104E500040226646921B904001434246481E8141D3
:104E6000114300228AE6794CA24200D061E7070094
:104E70000D0014009A46C5E5002C41D13C002C439E
:104E800078D0F443A146002C20D0704CA24271D0BF
:104E90004C46382C00DDB2E01F2C00DDBCE02026A3
:104EA000341BA2463C005646B4404E46A0462C0059
:104EB000F440A446444666463443A4465446A540BE
:104EC00064466E1EB54125434C46E7406D188D4241
:104ED00089413F184942CF19140056E6002A2FD1C4
:104EE00002000A4300D184E007000D009A46574CA7
:104EF00088E53D436F1EBD41ECB200270D1B60E706
:104F0000524CA24236D0744280263604A146374322
:104F1000BEE702000A4300D174E56A1A904645458F
:104F2000B6413A1A7642921B9446120200D4F7E533
:104F30004D1BA9428941C71B49427F1A9A4661E528
:104F400002000A433AD0ED087C072C438025FA087A
:104F50002D032A4208D0C7082F4205D145072C004F
:104F60003A009A46C9080C43670FD200E500174380
:104F7000364C47E507000D00140043E53A002A438C
:104F800043D002000A4319D0ED087C072C4380254A
:104F9000FA082D032A4207D0C6082E4204D147073B
:104FA0003C003200C9080C43D700620FE5001743EC
:104FB0009A46264C26E50022002544E5234C21E5AF
:104FC000002049E700230025BBE54C463E00203C7D
:104FD000E6404C46B446202C31D040244E46A61B19
:104FE000B7403D436C1EA54164462C4300270D1B72
:104FF000E7E6802200231203144C0025A1E53D437F
:105000006F1EBD410027EDB260E707000D000F4C99
:10501000F8E407000D00F5E44E463C00203EF44065
:10502000A0464C46202C0ED040244E46A41BA74040
:105030003D436F1EBD4144460027254346E70027F8
:10504000CFE70D0073E50027F2E7C046FF07000039
:10505000FFFF7FFF70B50E4E0C031D0349005B0080
:10506000240B490D2D0B5B0DB14204D008490020E3
:105070008B4208D070BD04430120002CFAD10449B2
:1050800000208B42F6D115432800451EA841F1E7C8
:10509000FF0700000B0330B5134D1A0B4B005B0DDF
:1050A000C90F0024AB4211DD104CA34210DC802458
:1050B000640322430E4CE41A1F2C0CDD0D48C31A66
:1050C000DA4013005C42002900D11C00200030BDF2
:1050D000094BCC18FAE7E040084CA44663449A40D8
:1050E00013000343EEE7C046FE0300001D0400006A
:1050F0003304000013040000FFFFFF7FEDFBFFFF00
:1051000070B5002830D0C317C4185C40C50F20000C
:10511000FEF7DEFB174B184A1B1AD21A1F2A18DD9E
:10512000164AD21A9440002224035B05240B5B0D1F
:105130000021100024030A0D1205240B1443104A09
:105140001B0514401C436400ED0764082C43210038
:1051500070BD210091400A000B21081AC4405B0574
:105160002403240B5B0DE3E7002500230024002229
:10517000DEE7C0461E0400003304000013040000F4
:10518000FFFF0F8070B5051E28D0FEF7A1FB154B61
:10519000154A1B1AD21A1F2A16DD2C00134A0025A5
:1051A000D21A94405A052403240B520D00212403E3
:1051B0000B0D240B1B0523430D4C120523401343F9
:1051C0005B002800590870BD0B212C00081AC44050
:1051D000954024035A05240B520DE7E700220024D2
:1051E000E4E7C0461E04000033040000130400007E
:1051F000FFFF0F804200120E511C4302C9B270B56E
:105200005D0AC40F012915DDE02189008C466D0778
:105210001B0B6244002128000D0D2D052B431C4D56
:1052200052052B40520813435B00E4075B082343FD
:10523000190070BD002A15D1002D1FD02800FEF7DF
:1052400047FB0A281DDC0B232A001B1ADA40130037
:105250000200153295400F4A1B03121A52051B0B10
:10526000520DD7E7002D06D080221B0B12031343EB
:105270006D07094ACEE7084A0023CBE70022002346
:10528000C8E703000B3B9D402B000025E3E7C04629
:10529000FFFF0F8089030000FF0700000B0010B51F
:1052A0000100180000F002F810BDFFFF70B5054CBA
:1052B00005001300201E04D00A000220290000E08F
:1052C00000BF70BD00000000014B18687047C04669
:1052D000FC0400200E4B70B500251E000D4CE41A96
:1052E000A410A54204D0AB00F35898470135F8E765
:1052F00000F0BAFC084B00251E00084CE41AA4106C
:10530000A54204D0AB00F35898470135F8E770BDCB
:10531000745C0000745C0000745C00007C5C000045
:1053200010B5034B0100186800F064F810BDC046CA
:10533000FC04002010B5034B0100186800F00EF8C3
:1053400010BDC046FC040020002310B59A4203D0D3
:10535000CC5CC4540133F9E710BDFFFF70B5050004
:10536000002944D00C1F2368002B00DAE418280021
:1053700000F0B9F81E4A13681100002B02D16360D7
:10538000146031E0A3420DD92268A018834203D1F2
:1053900018685B688218226063600C6024E0A24297
:1053A00003D813005A68002AF9D11E689819A04240
:1053B0000BD12168711858181960824214D11068F5
:1053C0005268411819605A600EE0A04202D90C23BD
:1053D0002B6009E021686018824203D1106852688E
:1053E0004118216062605C60280000F07DF870BDAB
:1053F000C4080020032370B5CD1C9D43083506006A
:105400000C2D01D20C2501E0002D01DBA94202D9AF
:105410000C23336048E0300000F065F8234B1C6833
:105420001A002100002913D00B685B1B0DD40B2B35
:1054300002D90B60CC181EE08C4202D16368136065
:105440001AE04B6863600C0016E00C004968E9E75D
:10545000174C2368002B03D1300000F02BF820609C
:105460002900300000F026F8431C18D00323C41C88
:105470009C43A0420DD12560300000F035F820009B
:1054800007220B30231D9043C31A0ED05A42E2501C
:105490000BE0211A300000F00DF8431CEBD10C2377
:1054A0003000336000F020F8002070BDC4080020F8
:1054B000C0080020002370B5064C050008002360DA
:1054C000FCF70EFB431C03D12368002B00D02B609C
:1054D00070BDC046F00800200023C25C0133002AE2
:1054E000FBD1581E704770477047FFFF0000000057
:1054F000000000007F040000D70A0000D90400006B
:1055000055070000BB0A0000270B0000730A0000CB
:10551000EF060000650A0000B30400001506000055
:10552000CF0400007504000000000000000000002F
:1055300071040000A70E0000090500002507000007
:105540008B0E0000F70E0000430E0000B9060000AD
:10555000350E000083040000550500009F04000084
:10556000A904000050F052F051F04FF027F038F04D
:105570002DF02EF033F034F024F025F026F021F059
:1055800022F023F01EF01FF020F029F014F01AF0A2
:1055900008F015F017F01CF018F00CF012F013F0F2
:1055A00004F016F007F009F00AF00BF00DF00EF021
:1055B0000FF0100002E01DF01BF006F019F005F0EE
:1055C00011F010F002E02AF02BF001E008E004E016
:1055D0002CF02CF0100036F037F028F0000000001E
:1055E0000000010002000400060008000B000F008C
:1055F000140019001F0026002E00370041004B0048
:1056000057006300710080008F00A000B200C50049
:10561000DA00EF0006011E01370152016E018B0115
:10562000A901C901EB010E02320257027F02A70253
:10563000D202FD022B0359038A03BC03EF032504A6
:105640005C049404CF040B0548058805C9050C06C5
:1056500051069806E0062A077607C407140866086C
:10566000B9080F096709C0091B0A790AD80A3A0B59
:105670009D0B030C6A0CD40C3F0DAD0D1D0E8F0E4F
:10568000030F790FF20F6C10E9106811E9116C1219
:10569000F2127A13041490141F15B0154316D9167C
:1056A00071170B18A7184619E8198B1A321BDA1B49
:1056B000851C331DE21D951E491F0120BB2077214B
:1056C0003622F722BB2381244A251626E426B52755
:1056D00088285E29362A112BEF2BD02CB32D992E3A
:1056E000812F6D305A314B323F3335342E352936C8
:1056F000283729382D39333A3D3B493C593D6B3EDB
:10570000803F9740B241D042F04313453A46634749
:105710008F48BE49F04A254C5D4D974ED54F1651E6
:105720005A52A153EB5438568757DA58315A8A5B8C
:10573000E65C455EA75F0D617662E1635065C26617
:105740003768AF692B6BAA6C2B6EB06F3971C4725E
:105750005374E5757A771279AE7A4C7CEF7D947F3D
:105760003D81E98298844B860188BA89768B368D93
:10577000FA8EC0908A9258942996FD97D499B09B3E
:105780008E9D709F55A13EA32AA51AA70DA904AB13
:10579000FEACFBAEFCB001B309B515B724B937BBFD
:1057A0004DBD67BF84C1A5C3CAC5F2C71ECA4DCCD3
:1057B00080CEB7D0F1D22FD571D7B6D9FEDB4BDE74
:1057C0009BE0EFE247E5A2E701EA63ECCAEE34F1C1
:1057D000A2F313F688F802FB7EFDFFFF010203042B
:1057E000302F2D3D3B273738393435363132331B96
:1057F00071776572747975696F70617364666768D3
:105800006A6B6C100E7A786376626E6D0E0809050D
:1058100007062020102C2E0A00000000293F5F2BD5
:105820003A22262A2824255E21402300515745523A
:10583000545955494F504153444647484A4B4C00F0
:10584000005A584356424E4D000000000000000030
:10585000003C3E00111213140000161700601900DE
:10586000001D00150000007E0000000000007B7D90
:105870005C7C00000000005B5D2829000000000047
:105880000000000000000000000000180000000000
:1058900025642564256425642564256425642564C0
:1058A00025642564256425642564256425642564B0
:1058B00000426174743A000A0004050708060900F2
:1058C0000102030F0E111014156E616E006F7666E3
:1058D00000696E6600050E08090D0C06070F0B0027
:1058E0004417FF050E08090D0C06070F0B0044179F
:1058F000FFFFFFFFFFFFFFFFFFFFFF1A1BFFFFFF81
:10590000420000F840A0044001000000420000F8FE
:1059100044A0044002000000C00000F800C00440A1
:1059200001000000000000F80490044002000000A4
:10593000000000F80890044004000000C00000F8D7
:105940001CC0044080000000C00000F810C00440EB
:1059500010000000C00000F808C00440040000006F
:10596000C00000F80CC0044008000000800000F8EF
:105970000CB0044008000000800000F810B00440A3
:1059800010000000800000F818B004404000000043
:10599000800000F81CB0044080000000800000F887
:1059A00014B0044020000000C00000F804C004400F
:1059B00002000000800000F800B004400100000078
:1059C000400000F800A0044001000000400000F882
:1059D00004A0044002000000400000F80CA00440B5
:1059E00008000000400000F808A004400400000087
:1059F000C00000F814C0044020000000C00000F8FF
:105A000018C0044040000000800000F804B00440CA
:105A100002000000800000F808B00440040000000C
:105A2000020100F850D0044010000000020100F80C
:105A300054D0044020000000030100F878D0044056
:105A4000400000000000000000000000C927000026
:105A5000BD270000B5270000AD270000A5270000E6
:105A60009D270000952700008D2700002C5E7460A4
:105A7000616264346667656E362D3738271E1F20D5
:105A80002122232425267333762E77785F444546DA
:105A90004748494A4B4C4D4E4F505152535455561E
:105AA0005758595A5B5C5D2F3130636D35040506DC
:105AB0000708090A0B0C0D0E0F10111213141516FE
:105AC0001718191A1B1C1D6F7170752A15151915D9
:105AD000151515FF00010000AC02002012000000A7
